8=FIX.4.4|9=137|35=D|49=JOJOORDUAT|56=GEMINIORDUAT|34=2|52=20190329-07:45:48.238|11=0|55=BTCUSD|54=2|60=20190329-07:45:48.238|38=1.0|40=2|44=4000.0|59=4|10=104|8=FIX.4.4|9=137|35=D|49=JOJOORDUAT|56=GEMINIORDUAT|34=3|52=20190329-07:45:48.238|11=1|55=BTCUSD|54=2|60=20190329-07:45:48.238|38=1.0|40=2|44=4000.0|59=4|10=106|8=FIX.4.4|9=137|35=D|49=JOJOORDUAT|56=GEMINIORDUAT|34=4|52=20190329-07:45:48.239|11=2|55=BTCUSD|54=2|60=20190329-07:45:48.239|38=1.0|40=2|44=4000.0|59=4|10=110|8=FIX.4.4|9=137|35=D|49=JOJOORDUAT|56=GEMINIORDUAT|34=5|52=20190329-07:45:48.239|11=3|55=BTCUSD|54=2|60=20190329-07:45:48.239|38=1.0|40=2|44=4000.0|59=4|10=112|8=FIX.4.4|9=137|35=D|49=JOJOORDUAT|56=GEMINIORDUAT|34=6|52=20190329-07:45:48.239|11=4|55=BTCUSD|54=2|60=20190329-07:45:48.239|38=1.0|40=2|44=4000.0|59=4|10=114|8=FIX.4.4|9=137|35=D|49=JOJOORDUAT|56=GEMINIORDUAT|34=7|52=20190329-07:45:48.239|11=5|55=BTCUSD|54=2|60=20190329-07:45:48.239|38=1.0|40=2|44=4000.0|59=4|10=116|8=FIX.4.4|9=137|35=D|49=JOJOORDUAT|56=GEMINIORDUAT|34=8|52=20190329-07:45:48.239|11=6|55=BTCUSD|54=2|60=20190329-07:45:48.239|38=1.0|40=2|44=4000.0|59=4|10=118|8=FIX.4.4|9=137|35=D|49=JOJOORDUAT|56=GEMINIORDUAT|34=9|52=20190329-07:45:48.239|11=7|55=BTCUSD|54=2|60=20190329-07:45:48.239|38=1.0|40=2|44=4000.0|59=4|10=120|8=FIX.4.4|9=138|35=D|49=JOJOORDUAT|56=GEMINIORDUAT|34=10|52=20190329-07:45:48.239|11=8|55=BTCUSD|54=2|60=20190329-07:45:48.239|38=1.0|40=2|44=4000.0|59=4|10=162|8=FIX.4.4|9=138|35=D|49=JOJOORDUAT|56=GEMINIORDUAT|34=11|52=20190329-07:45:48.239|11=9|55=BTCUSD|54=2|60=20190329-07:45:48.239|38=1.0|40=2|44=4000.0|59=4|10=164|8=FIX.4.4|9=139|35=D|49=JOJOORDUAT|56=GEMINIORDUAT|34=12|52=20190329-07:45:48.239|11=10|55=BTCUSD|54=2|60=20190329-07:45:48.239|38=1.0|40=2|44=4000.0|59=4|10=206|8=FIX.4.4|9=139|35=D|49=JOJOORDUAT|56=GEMINIORDUAT|34=13|52=20190329-07:45:48.239|11=11|55=BTCUSD|54=2|60=20190329-07:45:48.239|38=1.0|40=2|44=4000.0|59=4|10=208|8=FIX.4.4|9=139|35=D|49=JOJOORDUAT|56=GEMINIORDUAT|34=14|52=20190329-07:45:48.239|11=12|55=BTCUSD|54=2|60=20190329-07:45:48.239|38=1.0|40=2|44=4000.0|59=4|10=210|8=FIX.4.4|9=139|35=D|49=JOJOORDUAT|56=GEMINIORDUAT|34=15|52=20190329-07:45:48.239|11=13|55=BTCUSD|54=2|60=20190329-07:45:48.239|38=1.0|40=2|44=4000.0|59=4|10=212|8=FIX.4.4|9=139|35=D|49=JOJOORDUAT|56=GEMINIORDUAT|34=16|52=20190329-07:45:48.239|11=14|55=BTCUSD|54=2|60=20190329-07:45:48.239|38=1.0|40=2|44=4000.0|59=4|10=214|8=FIX.4.4|9=139|35=D|49=JOJOORDUAT|56=GEMINIORDUAT|34=17|52=20190329-07:45:48.239|11=15|55=BTCUSD|54=2|60=20190329-07:45:48.239|38=1.0|40=2|44=4000.0|59=4|10=216|8=FIX.4.4|9=139|35=D|49=JOJOORDUAT|56=GEMINIORDUAT|34=18|52=20190329-07:45:48.239|11=16|55=BTCUSD|54=2|60=20190329-07:45:48.239|38=1.0|40=2|44=4000.0|59=4|10=218|8=FIX.4.4|9=139|35=D|49=JOJOORDUAT|56=GEMINIORDUAT|34=19|52=20190329-07:45:48.239|11=17|55=BTCUSD|54=2|60=20190329-07:45:48.239|38=1.0|40=2|44=4000.0|59=4|10=220|8=FIX.4.4|9=139|35=D|49=JOJOORDUAT|56=GEMINIORDUAT|34=20|52=20190329-07:45:48.239|11=18|55=BTCUSD|54=2|60=20190329-07:45:48.239|38=1.0|40=2|44=4000.0|59=4|10=213|8=FIX.4.4|9=139|35=D|49=JOJOORDUAT|56=GEMINIORDUAT|34=21|52=20190329-07:45:48.239|11=19|55=BTCUSD|54=2|60=20190329-07:45:48.239|38=1.0|40=2|44=4000.0|59=4|10=215|8=FIX.4.4|9=139|35=D|49=JOJOORDUAT|56=GEMINIORDUAT|34=22|52=20190329-07:45:48.239|11=20|55=BTCUSD|54=2|60=20190329-07:45:48.239|38=1.0|40=2|44=4000.0|59=4|10=208|8=FIX.4.4|9=139|35=D|49=JOJOORDUAT|56=GEMINIORDUAT|34=23|52=20190329-07:45:48.239|11=21|55=BTCUSD|54=2|60=20190329-07:45:48.239|38=1.0|40=2|44=4000.0|59=4|10=210|8=FIX.4.4|9=139|35=D|49=JOJOORDUAT|56=GEMINIORDUAT|34=24|52=20190329-07:45:48.239|11=22|55=BTCUSD|54=2|60=20190329-07:45:48.239|38=1.0|40=2|44=4000.0|59=4|10=212|8=FIX.4.4|9=139|35=D|49=JOJOORDUAT|56=GEMINIORDUAT|34=25|52=20190329-07:45:48.239|11=23|55=BTCUSD|54=2|60=20190329-07:45:48.239|38=1.0|40=2|44=4000.0|59=4|10=214|8=FIX.4.4|9=139|35=D|49=JOJOORDUAT|56=GEMINIORDUAT|34=26|52=20190329-07:45:48.239|11=24|55=BTCUSD|54=2|60=20190329-07:45:48.239|38=1.0|40=2|44=4000.0|59=4|10=216|8=FIX.4.4|9=139|35=D|49=JOJOORDUAT|56=GEMINIORDUAT|34=27|52=20190329-07:45:48.239|11=25|55=BTCUSD|54=2|60=20190329-07:45:48.239|38=1.0|40=2|44=4000.0|59=4|10=218|8=FIX.4.4|9=139|35=D|49=JOJOORDUAT|56=GEMINIORDUAT|34=28|52=20190329-07:45:48.239|11=26|55=BTCUSD|54=2|60=20190329-07:45:48.239|38=1.0|40=2|44=4000.0|59=4|10=220|8=FIX.4.4|9=139|35=D|49=JOJOORDUAT|56=GEMINIORDUAT|34=29|52=20190329-07:45:48.239|11=27|55=BTCUSD|54=2|60=20190329-07:45:48.239|38=1.0|40=2|44=4000.0|59=4|10=222|8=FIX.4.4|9=139|35=D|49=JOJOORDUAT|56=GEMINIORDUAT|34=30|52=20190329-07:45:48.240|11=28|55=BTCUSD|54=2|60=20190329-07:45:48.240|38=1.0|40=2|44=4000.0|59=4|10=199|8=FIX.4.4|9=139|35=D|49=JOJOORDUAT|56=GEMINIORDUAT|34=31|52=20190329-07:45:48.240|11=29|55=BTCUSD|54=2|60=20190329-07:45:48.240|38=1.0|40=2|44=4000.0|59=4|10=201|8=FIX.4.4|9=139|35=D|49=JOJOORDUAT|56=GEMINIORDUAT|34=32|52=20190329-07:45:48.240|11=30|55=BTCUSD|54=2|60=20190329-07:45:48.240|38=1.0|40=2|44=4000.0|59=4|10=194|8=FIX.4.4|9=139|35=D|49=JOJOORDUAT|56=GEMINIORDUAT|34=33|52=20190329-07:45:48.240|11=31|55=BTCUSD|54=2|60=20190329-07:45:48.240|38=1.0|40=2|44=4000.0|59=4|10=196|8=FIX.4.4|9=139|35=D|49=JOJOORDUAT|56=GEMINIORDUAT|34=34|52=20190329-07:45:48.240|11=32|55=BTCUSD|54=2|60=20190329-07:45:48.240|38=1.0|40=2|44=4000.0|59=4|10=198|8=FIX.4.4|9=139|35=D|49=JOJOORDUAT|56=GEMINIORDUAT|34=35|52=20190329-07:45:48.240|11=33|55=BTCUSD|54=2|60=20190329-07:45:48.240|38=1.0|40=2|44=4000.0|59=4|10=200|8=FIX.4.4|9=139|35=D|49=JOJOORDUAT|56=GEMINIORDUAT|34=36|52=20190329-07:45:48.240|11=34|55=BTCUSD|54=2|60=20190329-07:45:48.240|38=1.0|40=2|44=4000.0|59=4|10=202|8=FIX.4.4|9=139|35=D|49=JOJOORDUAT|56=GEMINIORDUAT|34=37|52=20190329-07:45:48.240|11=35|55=BTCUSD|54=2|60=20190329-07:45:48.240|38=1.0|40=2|44=4000.0|59=4|10=204|8=FIX.4.4|9=139|35=D|49=JOJOORDUAT|56=GEMINIORDUAT|34=38|52=20190329-07:45:48.240|11=36|55=BTCUSD|54=2|60=20190329-07:45:48.240|38=1.0|40=2|44=4000.0|59=4|10=206|8=FIX.4.4|9=139|35=D|49=JOJOORDUAT|56=GEMINIORDUAT|34=39|52=20190329-07:45:48.240|11=37|55=BTCUSD|54=2|60=20190329-07:45:48.240|38=1.0|40=2|44=4000.0|59=4|10=208|8=FIX.4.4|9=139|35=D|49=JOJOORDUAT|56=GEMINIORDUAT|34=40|52=20190329-07:45:48.240|11=38|55=BTCUSD|54=2|60=20190329-07:45:48.240|38=1.0|40=2|44=4000.0|59=4|10=201|8=FIX.4.4|9=139|35=D|49=JOJOORDUAT|56=GEMINIORDUAT|34=41|52=20190329-07:45:48.240|11=39|55=BTCUSD|54=2|60=20190329-07:45:48.240|38=1.0|40=2|44=4000.0|59=4|10=203|8=FIX.4.4|9=139|35=D|49=JOJOORDUAT|56=GEMINIORDUAT|34=42|52=20190329-07:45:48.240|11=40|55=BTCUSD|54=2|60=20190329-07:45:48.240|38=1.0|40=2|44=4000.0|59=4|10=196|8=FIX.4.4|9=139|35=D|49=JOJOORDUAT|56=GEMINIORDUAT|34=43|52=20190329-07:45:48.240|11=41|55=BTCUSD|54=2|60=20190329-07:45:48.240|38=1.0|40=2|44=4000.0|59=4|10=198|8=FIX.4.4|9=139|35=D|49=JOJOORDUAT|56=GEMINIORDUAT|34=44|52=20190329-07:45:48.240|11=42|55=BTCUSD|54=2|60=20190329-07:45:48.240|38=1.0|40=2|44=4000.0|59=4|10=200|8=FIX.4.4|9=139|35=D|49=JOJOORDUAT|56=GEMINIORDUAT|34=45|52=20190329-07:45:48.240|11=43|55=BTCUSD|54=2|60=20190329-07:45:48.240|38=1.0|40=2|44=4000.0|59=4|10=202|8=FIX.4.4|9=139|35=D|49=JOJOORDUAT|56=GEMINIORDUAT|34=46|52=20190329-07:45:48.241|11=44|55=BTCUSD|54=2|60=20190329-07:45:48.241|38=1.0|40=2|44=4000.0|59=4|10=206|8=FIX.4.4|9=139|35=D|49=JOJOORDUAT|56=GEMINIORDUAT|34=47|52=20190329-07:45:48.241|11=45|55=BTCUSD|54=2|60=20190329-07:45:48.241|38=1.0|40=2|44=4000.0|59=4|10=208|8=FIX.4.4|9=139|35=D|49=JOJOORDUAT|56=GEMINIORDUAT|34=48|52=20190329-07:45:48.241|11=46|55=BTCUSD|54=2|60=20190329-07:45:48.241|38=1.0|40=2|44=4000.0|59=4|10=210|8=FIX.4.4|9=139|35=D|49=JOJOORDUAT|56=GEMINIORDUAT|34=49|52=20190329-07:45:48.241|11=47|55=BTCUSD|54=2|60=20190329-07:45:48.241|38=1.0|40=2|44=4000.0|59=4|10=212|8=FIX.4.4|9=139|35=D|49=JOJOORDUAT|56=GEMINIORDUAT|34=50|52=20190329-07:45:48.241|11=48|55=BTCUSD|54=2|60=20190329-07:45:48.241|38=1.0|40=2|44=4000.0|59=4|10=205|8=FIX.4.4|9=139|35=D|49=JOJOORDUAT|56=GEMINIORDUAT|34=51|52=20190329-07:45:48.241|11=49|55=BTCUSD|54=2|60=20190329-07:45:48.241|38=1.0|40=2|44=4000.0|59=4|10=207|8=FIX.4.4|9=139|35=D|49=JOJOORDUAT|56=GEMINIORDUAT|34=52|52=20190329-07:45:48.241|11=50|55=BTCUSD|54=2|60=20190329-07:45:48.241|38=1.0|40=2|44=4000.0|59=4|10=200|8=FIX.4.4|9=139|35=D|49=JOJOORDUAT|56=GEMINIORDUAT|34=53|52=20190329-07:45:48.241|11=51|55=BTCUSD|54=2|60=20190329-07:45:48.241|38=1.0|40=2|44=4000.0|59=4|10=202|8=FIX.4.4|9=139|35=D|49=JOJOORDUAT|56=GEMINIORDUAT|34=54|52=20190329-07:45:48.241|11=52|55=BTCUSD|54=2|60=20190329-07:45:48.241|38=1.0|40=2|44=4000.0|59=4|10=204|8=FIX.4.4|9=139|35=D|49=JOJOORDUAT|56=GEMINIORDUAT|34=55|52=20190329-07:45:48.242|11=53|55=BTCUSD|54=2|60=20190329-07:45:48.242|38=1.0|40=2|44=4000.0|59=4|10=208|8=FIX.4.4|9=139|35=D|49=JOJOORDUAT|56=GEMINIORDUAT|34=56|52=20190329-07:45:48.242|11=54|55=BTCUSD|54=2|60=20190329-07:45:48.242|38=1.0|40=2|44=4000.0|59=4|10=210|8=FIX.4.4|9=139|35=D|49=JOJOORDUAT|56=GEMINIORDUAT|34=57|52=20190329-07:45:48.242|11=55|55=BTCUSD|54=2|60=20190329-07:45:48.242|38=1.0|40=2|44=4000.0|59=4|10=212|8=FIX.4.4|9=139|35=D|49=JOJOORDUAT|56=GEMINIORDUAT|34=58|52=20190329-07:45:48.242|11=56|55=BTCUSD|54=2|60=20190329-07:45:48.242|38=1.0|40=2|44=4000.0|59=4|10=214|8=FIX.4.4|9=139|35=D|49=JOJOORDUAT|56=GEMINIORDUAT|34=59|52=20190329-07:45:48.242|11=57|55=BTCUSD|54=2|60=20190329-07:45:48.242|38=1.0|40=2|44=4000.0|59=4|10=216|8=FIX.4.4|9=139|35=D|49=JOJOORDUAT|56=GEMINIORDUAT|34=60|52=20190329-07:45:48.242|11=58|55=BTCUSD|54=2|60=20190329-07:45:48.242|38=1.0|40=2|44=4000.0|59=4|10=209|8=FIX.4.4|9=139|35=D|49=JOJOORDUAT|56=GEMINIORDUAT|34=61|52=20190329-07:45:48.242|11=59|55=BTCUSD|54=2|60=20190329-07:45:48.242|38=1.0|40=2|44=4000.0|59=4|10=211|8=FIX.4.4|9=139|35=D|49=JOJOORDUAT|56=GEMINIORDUAT|34=62|52=20190329-07:45:48.242|11=60|55=BTCUSD|54=2|60=20190329-07:45:48.242|38=1.0|40=2|44=4000.0|59=4|10=204|8=FIX.4.4|9=139|35=D|49=JOJOORDUAT|56=GEMINIORDUAT|34=63|52=20190329-07:45:48.242|11=61|55=BTCUSD|54=2|60=20190329-07:45:48.242|38=1.0|40=2|44=4000.0|59=4|10=206|8=FIX.4.4|9=139|35=D|49=JOJOORDUAT|56=GEMINIORDUAT|34=64|52=20190329-07:45:48.243|11=62|55=BTCUSD|54=2|60=20190329-07:45:48.243|38=1.0|40=2|44=4000.0|59=4|10=210|8=FIX.4.4|9=139|35=D|49=JOJOORDUAT|56=GEMINIORDUAT|34=65|52=20190329-07:45:48.243|11=63|55=BTCUSD|54=2|60=20190329-07:45:48.243|38=1.0|40=2|44=4000.0|59=4|10=212|8=FIX.4.4|9=139|35=D|49=JOJOORDUAT|56=GEMINIORDUAT|34=66|52=20190329-07:45:48.243|11=64|55=BTCUSD|54=2|60=20190329-07:45:48.243|38=1.0|40=2|44=4000.0|59=4|10=214|8=FIX.4.4|9=139|35=D|49=JOJOORDUAT|56=GEMINIORDUAT|34=67|52=20190329-07:45:48.243|11=65|55=BTCUSD|54=2|60=20190329-07:45:48.243|38=1.0|40=2|44=4000.0|59=4|10=216|8=FIX.4.4|9=139|35=D|49=JOJOORDUAT|56=GEMINIORDUAT|34=68|52=20190329-07:45:48.243|11=66|55=BTCUSD|54=2|60=20190329-07:45:48.243|38=1.0|40=2|44=4000.0|59=4|10=218|8=FIX.4.4|9=139|35=D|49=JOJOORDUAT|56=GEMINIORDUAT|34=69|52=20190329-07:45:48.243|11=67|55=BTCUSD|54=2|60=20190329-07:45:48.243|38=1.0|40=2|44=4000.0|59=4|10=220|8=FIX.4.4|9=139|35=D|49=JOJOORDUAT|56=GEMINIORDUAT|34=70|52=20190329-07:45:48.243|11=68|55=BTCUSD|54=2|60=20190329-07:45:48.243|38=1.0|40=2|44=4000.0|59=4|10=213|8=FIX.4.4|9=139|35=D|49=JOJOORDUAT|56=GEMINIORDUAT|34=71|52=20190329-07:45:48.243|11=69|55=BTCUSD|54=2|60=20190329-07:45:48.243|38=1.0|40=2|44=4000.0|59=4|10=215|8=FIX.4.4|9=139|35=D|49=JOJOORDUAT|56=GEMINIORDUAT|34=72|52=20190329-07:45:48.243|11=70|55=BTCUSD|54=2|60=20190329-07:45:48.243|38=1.0|40=2|44=4000.0|59=4|10=208|8=FIX.4.4|9=139|35=D|49=JOJOORDUAT|56=GEMINIORDUAT|34=73|52=20190329-07:45:48.243|11=71|55=BTCUSD|54=2|60=20190329-07:45:48.243|38=1.0|40=2|44=4000.0|59=4|10=210|8=FIX.4.4|9=139|35=D|49=JOJOORDUAT|56=GEMINIORDUAT|34=74|52=20190329-07:45:48.243|11=72|55=BTCUSD|54=2|60=20190329-07:45:48.243|38=1.0|40=2|44=4000.0|59=4|10=212|8=FIX.4.4|9=139|35=D|49=JOJOORDUAT|56=GEMINIORDUAT|34=75|52=20190329-07:45:48.244|11=73|55=BTCUSD|54=2|60=20190329-07:45:48.244|38=1.0|40=2|44=4000.0|59=4|10=216|8=FIX.4.4|9=139|35=D|49=JOJOORDUAT|56=GEMINIORDUAT|34=76|52=20190329-07:45:48.244|11=74|55=BTCUSD|54=2|60=20190329-07:45:48.244|38=1.0|40=2|44=4000.0|59=4|10=218|8=FIX.4.4|9=139|35=D|49=JOJOORDUAT|56=GEMINIORDUAT|34=77|52=20190329-07:45:48.244|11=75|55=BTCUSD|54=2|60=20190329-07:45:48.244|38=1.0|40=2|44=4000.0|59=4|10=220|8=FIX.4.4|9=139|35=D|49=JOJOORDUAT|56=GEMINIORDUAT|34=78|52=20190329-07:45:48.244|11=76|55=BTCUSD|54=2|60=20190329-07:45:48.244|38=1.0|40=2|44=4000.0|59=4|10=222|8=FIX.4.4|9=139|35=D|49=JOJOORDUAT|56=GEMINIORDUAT|34=79|52=20190329-07:45:48.244|11=77|55=BTCUSD|54=2|60=20190329-07:45:48.244|38=1.0|40=2|44=4000.0|59=4|10=224|8=FIX.4.4|9=139|35=D|49=JOJOORDUAT|56=GEMINIORDUAT|34=80|52=20190329-07:45:48.244|11=78|55=BTCUSD|54=2|60=20190329-07:45:48.244|38=1.0|40=2|44=4000.0|59=4|10=217|8=FIX.4.4|9=139|35=D|49=JOJOORDUAT|56=GEMINIORDUAT|34=81|52=20190329-07:45:48.244|11=79|55=BTCUSD|54=2|60=20190329-07:45:48.244|38=1.0|40=2|44=4000.0|59=4|10=219|8=FIX.4.4|9=139|35=D|49=JOJOORDUAT|56=GEMINIORDUAT|34=82|52=20190329-07:45:48.244|11=80|55=BTCUSD|54=2|60=20190329-07:45:48.244|38=1.0|40=2|44=4000.0|59=4|10=212|8=FIX.4.4|9=139|35=D|49=JOJOORDUAT|56=GEMINIORDUAT|34=83|52=20190329-07:45:48.244|11=81|55=BTCUSD|54=2|60=20190329-07:45:48.244|38=1.0|40=2|44=4000.0|59=4|10=214|8=FIX.4.4|9=139|35=D|49=JOJOORDUAT|56=GEMINIORDUAT|34=84|52=20190329-07:45:48.244|11=82|55=BTCUSD|54=2|60=20190329-07:45:48.244|38=1.0|40=2|44=4000.0|59=4|10=216|8=FIX.4.4|9=139|35=D|49=JOJOORDUAT|56=GEMINIORDUAT|34=85|52=20190329-07:45:48.244|11=83|55=BTCUSD|54=2|60=20190329-07:45:48.244|38=1.0|40=2|44=4000.0|59=4|10=218|8=FIX.4.4|9=139|35=D|49=JOJOORDUAT|56=GEMINIORDUAT|34=86|52=20190329-07:45:48.244|11=84|55=BTCUSD|54=2|60=20190329-07:45:48.244|38=1.0|40=2|44=4000.0|59=4|10=220|8=FIX.4.4|9=139|35=D|49=JOJOORDUAT|56=GEMINIORDUAT|34=87|52=20190329-07:45:48.244|11=85|55=BTCUSD|54=2|60=20190329-07:45:48.244|38=1.0|40=2|44=4000.0|59=4|10=222|8=FIX.4.4|9=139|35=D|49=JOJOORDUAT|56=GEMINIORDUAT|34=88|52=20190329-07:45:48.244|11=86|55=BTCUSD|54=2|60=20190329-07:45:48.244|38=1.0|40=2|44=4000.0|59=4|10=224|8=FIX.4.4|9=139|35=D|49=JOJOORDUAT|56=GEMINIORDUAT|34=89|52=20190329-07:45:48.244|11=87|55=BTCUSD|54=2|60=20190329-07:45:48.244|38=1.0|40=2|44=4000.0|59=4|10=226|8=FIX.4.4|9=139|35=D|49=JOJOORDUAT|56=GEMINIORDUAT|34=90|52=20190329-07:45:48.244|11=88|55=BTCUSD|54=2|60=20190329-07:45:48.244|38=1.0|40=2|44=4000.0|59=4|10=219|8=FIX.4.4|9=139|35=D|49=JOJOORDUAT|56=GEMINIORDUAT|34=91|52=20190329-07:45:48.244|11=89|55=BTCUSD|54=2|60=20190329-07:45:48.244|38=1.0|40=2|44=4000.0|59=4|10=221|8=FIX.4.4|9=139|35=D|49=JOJOORDUAT|56=GEMINIORDUAT|34=92|52=20190329-07:45:48.244|11=90|55=BTCUSD|54=2|60=20190329-07:45:48.244|38=1.0|40=2|44=4000.0|59=4|10=214|8=FIX.4.4|9=139|35=D|49=JOJOORDUAT|56=GEMINIORDUAT|34=93|52=20190329-07:45:48.244|11=91|55=BTCUSD|54=2|60=20190329-07:45:48.244|38=1.0|40=2|44=4000.0|59=4|10=216|8=FIX.4.4|9=139|35=D|49=JOJOORDUAT|56=GEMINIORDUAT|34=94|52=20190329-07:45:48.244|11=92|55=BTCUSD|54=2|60=20190329-07:45:48.244|38=1.0|40=2|44=4000.0|59=4|10=218|8=FIX.4.4|9=139|35=D|49=JOJOORDUAT|56=GEMINIORDUAT|34=95|52=20190329-07:45:48.244|11=93|55=BTCUSD|54=2|60=20190329-07:45:48.244|38=1.0|40=2|44=4000.0|59=4|10=220|8=FIX.4.4|9=139|35=D|49=JOJOORDUAT|56=GEMINIORDUAT|34=96|52=20190329-07:45:48.244|11=94|55=BTCUSD|54=2|60=20190329-07:45:48.244|38=1.0|40=2|44=4000.0|59=4|10=222|8=FIX.4.4|9=139|35=D|49=JOJOORDUAT|56=GEMINIORDUAT|34=97|52=20190329-07:45:48.244|11=95|55=BTCUSD|54=2|60=20190329-07:45:48.244|38=1.0|40=2|44=4000.0|59=4|10=224|8=FIX.4.4|9=139|35=D|49=JOJOORDUAT|56=GEMINIORDUAT|34=98|52=20190329-07:45:48.244|11=96|55=BTCUSD|54=2|60=20190329-07:45:48.244|38=1.0|40=2|44=4000.0|59=4|10=226|8=FIX.4.4|9=139|35=D|49=JOJOORDUAT|56=GEMINIORDUAT|34=99|52=20190329-07:45:48.245|11=97|55=BTCUSD|54=2|60=20190329-07:45:48.245|38=1.0|40=2|44=4000.0|59=4|10=230|8=FIX.4.4|9=140|35=D|49=JOJOORDUAT|56=GEMINIORDUAT|34=100|52=20190329-07:45:48.245|11=98|55=BTCUSD|54=2|60=20190329-07:45:48.245|38=1.0|40=2|44=4000.0|59=4|10=254|8=FIX.4.4|9=140|35=D|49=JOJOORDUAT|56=GEMINIORDUAT|34=101|52=20190329-07:45:48.245|11=99|55=BTCUSD|54=2|60=20190329-07:45:48.245|38=1.0|40=2|44=4000.0|59=4|10=000|