8=FIX.4.4|9=83|35=A|49=JOJOORDUAT|56=GEMINIORDUAT|34=1|52=20190329-07:45:47.465|98=0|108=30|141=Y|10=203|
8=FIX.4.4|9=83|35=A|34=1|49=GEMINIORDUAT|52=20190329-07:45:47.582|56=JOJOORDUAT|98=0|108=30|141=Y|10=203|
8=FIX.4.4|9=137|35=D|49=JOJOORDUAT|56=GEMINIORDUAT|34=2|52=20190329-07:45:48.238|11=0|55=BTCUSD|54=2|60=20190329-07:45:48.238|38=1.0|40=2|44=4000.0|59=4|10=104|
8=FIX.4.4|9=137|35=D|49=JOJOORDUAT|56=GEMINIORDUAT|34=3|52=20190329-07:45:48.238|11=1|55=BTCUSD|54=2|60=20190329-07:45:48.238|38=1.0|40=2|44=4000.0|59=4|10=106|
8=FIX.4.4|9=137|35=D|49=JOJOORDUAT|56=GEMINIORDUAT|34=4|52=20190329-07:45:48.239|11=2|55=BTCUSD|54=2|60=20190329-07:45:48.239|38=1.0|40=2|44=4000.0|59=4|10=110|
8=FIX.4.4|9=137|35=D|49=JOJOORDUAT|56=GEMINIORDUAT|34=5|52=20190329-07:45:48.239|11=3|55=BTCUSD|54=2|60=20190329-07:45:48.239|38=1.0|40=2|44=4000.0|59=4|10=112|
8=FIX.4.4|9=137|35=D|49=JOJOORDUAT|56=GEMINIORDUAT|34=6|52=20190329-07:45:48.239|11=4|55=BTCUSD|54=2|60=20190329-07:45:48.239|38=1.0|40=2|44=4000.0|59=4|10=114|
8=FIX.4.4|9=137|35=D|49=JOJOORDUAT|56=GEMINIORDUAT|34=7|52=20190329-07:45:48.239|11=5|55=BTCUSD|54=2|60=20190329-07:45:48.239|38=1.0|40=2|44=4000.0|59=4|10=116|
8=FIX.4.4|9=137|35=D|49=JOJOORDUAT|56=GEMINIORDUAT|34=8|52=20190329-07:45:48.239|11=6|55=BTCUSD|54=2|60=20190329-07:45:48.239|38=1.0|40=2|44=4000.0|59=4|10=118|
8=FIX.4.4|9=137|35=D|49=JOJOORDUAT|56=GEMINIORDUAT|34=9|52=20190329-07:45:48.239|11=7|55=BTCUSD|54=2|60=20190329-07:45:48.239|38=1.0|40=2|44=4000.0|59=4|10=120|
8=FIX.4.4|9=138|35=D|49=JOJOORDUAT|56=GEMINIORDUAT|34=10|52=20190329-07:45:48.239|11=8|55=BTCUSD|54=2|60=20190329-07:45:48.239|38=1.0|40=2|44=4000.0|59=4|10=162|
8=FIX.4.4|9=138|35=D|49=JOJOORDUAT|56=GEMINIORDUAT|34=11|52=20190329-07:45:48.239|11=9|55=BTCUSD|54=2|60=20190329-07:45:48.239|38=1.0|40=2|44=4000.0|59=4|10=164|
8=FIX.4.4|9=139|35=D|49=JOJOORDUAT|56=GEMINIORDUAT|34=12|52=20190329-07:45:48.239|11=10|55=BTCUSD|54=2|60=20190329-07:45:48.239|38=1.0|40=2|44=4000.0|59=4|10=206|
8=FIX.4.4|9=139|35=D|49=JOJOORDUAT|56=GEMINIORDUAT|34=13|52=20190329-07:45:48.239|11=11|55=BTCUSD|54=2|60=20190329-07:45:48.239|38=1.0|40=2|44=4000.0|59=4|10=208|
8=FIX.4.4|9=139|35=D|49=JOJOORDUAT|56=GEMINIORDUAT|34=14|52=20190329-07:45:48.239|11=12|55=BTCUSD|54=2|60=20190329-07:45:48.239|38=1.0|40=2|44=4000.0|59=4|10=210|
8=FIX.4.4|9=139|35=D|49=JOJOORDUAT|56=GEMINIORDUAT|34=15|52=20190329-07:45:48.239|11=13|55=BTCUSD|54=2|60=20190329-07:45:48.239|38=1.0|40=2|44=4000.0|59=4|10=212|
8=FIX.4.4|9=139|35=D|49=JOJOORDUAT|56=GEMINIORDUAT|34=16|52=20190329-07:45:48.239|11=14|55=BTCUSD|54=2|60=20190329-07:45:48.239|38=1.0|40=2|44=4000.0|59=4|10=214|
8=FIX.4.4|9=139|35=D|49=JOJOORDUAT|56=GEMINIORDUAT|34=17|52=20190329-07:45:48.239|11=15|55=BTCUSD|54=2|60=20190329-07:45:48.239|38=1.0|40=2|44=4000.0|59=4|10=216|
8=FIX.4.4|9=139|35=D|49=JOJOORDUAT|56=GEMINIORDUAT|34=18|52=20190329-07:45:48.239|11=16|55=BTCUSD|54=2|60=20190329-07:45:48.239|38=1.0|40=2|44=4000.0|59=4|10=218|
8=FIX.4.4|9=139|35=D|49=JOJOORDUAT|56=GEMINIORDUAT|34=19|52=20190329-07:45:48.239|11=17|55=BTCUSD|54=2|60=20190329-07:45:48.239|38=1.0|40=2|44=4000.0|59=4|10=220|
8=FIX.4.4|9=139|35=D|49=JOJOORDUAT|56=GEMINIORDUAT|34=20|52=20190329-07:45:48.239|11=18|55=BTCUSD|54=2|60=20190329-07:45:48.239|38=1.0|40=2|44=4000.0|59=4|10=213|
8=FIX.4.4|9=139|35=D|49=JOJOORDUAT|56=GEMINIORDUAT|34=21|52=20190329-07:45:48.239|11=19|55=BTCUSD|54=2|60=20190329-07:45:48.239|38=1.0|40=2|44=4000.0|59=4|10=215|
8=FIX.4.4|9=139|35=D|49=JOJOORDUAT|56=GEMINIORDUAT|34=22|52=20190329-07:45:48.239|11=20|55=BTCUSD|54=2|60=20190329-07:45:48.239|38=1.0|40=2|44=4000.0|59=4|10=208|
8=FIX.4.4|9=139|35=D|49=JOJOORDUAT|56=GEMINIORDUAT|34=23|52=20190329-07:45:48.239|11=21|55=BTCUSD|54=2|60=20190329-07:45:48.239|38=1.0|40=2|44=4000.0|59=4|10=210|
8=FIX.4.4|9=139|35=D|49=JOJOORDUAT|56=GEMINIORDUAT|34=24|52=20190329-07:45:48.239|11=22|55=BTCUSD|54=2|60=20190329-07:45:48.239|38=1.0|40=2|44=4000.0|59=4|10=212|
8=FIX.4.4|9=139|35=D|49=JOJOORDUAT|56=GEMINIORDUAT|34=25|52=20190329-07:45:48.239|11=23|55=BTCUSD|54=2|60=20190329-07:45:48.239|38=1.0|40=2|44=4000.0|59=4|10=214|
8=FIX.4.4|9=139|35=D|49=JOJOORDUAT|56=GEMINIORDUAT|34=26|52=20190329-07:45:48.239|11=24|55=BTCUSD|54=2|60=20190329-07:45:48.239|38=1.0|40=2|44=4000.0|59=4|10=216|
8=FIX.4.4|9=139|35=D|49=JOJOORDUAT|56=GEMINIORDUAT|34=27|52=20190329-07:45:48.239|11=25|55=BTCUSD|54=2|60=20190329-07:45:48.239|38=1.0|40=2|44=4000.0|59=4|10=218|
8=FIX.4.4|9=139|35=D|49=JOJOORDUAT|56=GEMINIORDUAT|34=28|52=20190329-07:45:48.239|11=26|55=BTCUSD|54=2|60=20190329-07:45:48.239|38=1.0|40=2|44=4000.0|59=4|10=220|
8=FIX.4.4|9=139|35=D|49=JOJOORDUAT|56=GEMINIORDUAT|34=29|52=20190329-07:45:48.239|11=27|55=BTCUSD|54=2|60=20190329-07:45:48.239|38=1.0|40=2|44=4000.0|59=4|10=222|
8=FIX.4.4|9=139|35=D|49=JOJOORDUAT|56=GEMINIORDUAT|34=30|52=20190329-07:45:48.240|11=28|55=BTCUSD|54=2|60=20190329-07:45:48.240|38=1.0|40=2|44=4000.0|59=4|10=199|
8=FIX.4.4|9=139|35=D|49=JOJOORDUAT|56=GEMINIORDUAT|34=31|52=20190329-07:45:48.240|11=29|55=BTCUSD|54=2|60=20190329-07:45:48.240|38=1.0|40=2|44=4000.0|59=4|10=201|
8=FIX.4.4|9=139|35=D|49=JOJOORDUAT|56=GEMINIORDUAT|34=32|52=20190329-07:45:48.240|11=30|55=BTCUSD|54=2|60=20190329-07:45:48.240|38=1.0|40=2|44=4000.0|59=4|10=194|
8=FIX.4.4|9=139|35=D|49=JOJOORDUAT|56=GEMINIORDUAT|34=33|52=20190329-07:45:48.240|11=31|55=BTCUSD|54=2|60=20190329-07:45:48.240|38=1.0|40=2|44=4000.0|59=4|10=196|
8=FIX.4.4|9=139|35=D|49=JOJOORDUAT|56=GEMINIORDUAT|34=34|52=20190329-07:45:48.240|11=32|55=BTCUSD|54=2|60=20190329-07:45:48.240|38=1.0|40=2|44=4000.0|59=4|10=198|
8=FIX.4.4|9=139|35=D|49=JOJOORDUAT|56=GEMINIORDUAT|34=35|52=20190329-07:45:48.240|11=33|55=BTCUSD|54=2|60=20190329-07:45:48.240|38=1.0|40=2|44=4000.0|59=4|10=200|
8=FIX.4.4|9=139|35=D|49=JOJOORDUAT|56=GEMINIORDUAT|34=36|52=20190329-07:45:48.240|11=34|55=BTCUSD|54=2|60=20190329-07:45:48.240|38=1.0|40=2|44=4000.0|59=4|10=202|
8=FIX.4.4|9=139|35=D|49=JOJOORDUAT|56=GEMINIORDUAT|34=37|52=20190329-07:45:48.240|11=35|55=BTCUSD|54=2|60=20190329-07:45:48.240|38=1.0|40=2|44=4000.0|59=4|10=204|
8=FIX.4.4|9=139|35=D|49=JOJOORDUAT|56=GEMINIORDUAT|34=38|52=20190329-07:45:48.240|11=36|55=BTCUSD|54=2|60=20190329-07:45:48.240|38=1.0|40=2|44=4000.0|59=4|10=206|
8=FIX.4.4|9=139|35=D|49=JOJOORDUAT|56=GEMINIORDUAT|34=39|52=20190329-07:45:48.240|11=37|55=BTCUSD|54=2|60=20190329-07:45:48.240|38=1.0|40=2|44=4000.0|59=4|10=208|
8=FIX.4.4|9=139|35=D|49=JOJOORDUAT|56=GEMINIORDUAT|34=40|52=20190329-07:45:48.240|11=38|55=BTCUSD|54=2|60=20190329-07:45:48.240|38=1.0|40=2|44=4000.0|59=4|10=201|
8=FIX.4.4|9=139|35=D|49=JOJOORDUAT|56=GEMINIORDUAT|34=41|52=20190329-07:45:48.240|11=39|55=BTCUSD|54=2|60=20190329-07:45:48.240|38=1.0|40=2|44=4000.0|59=4|10=203|
8=FIX.4.4|9=139|35=D|49=JOJOORDUAT|56=GEMINIORDUAT|34=42|52=20190329-07:45:48.240|11=40|55=BTCUSD|54=2|60=20190329-07:45:48.240|38=1.0|40=2|44=4000.0|59=4|10=196|
8=FIX.4.4|9=139|35=D|49=JOJOORDUAT|56=GEMINIORDUAT|34=43|52=20190329-07:45:48.240|11=41|55=BTCUSD|54=2|60=20190329-07:45:48.240|38=1.0|40=2|44=4000.0|59=4|10=198|
8=FIX.4.4|9=139|35=D|49=JOJOORDUAT|56=GEMINIORDUAT|34=44|52=20190329-07:45:48.240|11=42|55=BTCUSD|54=2|60=20190329-07:45:48.240|38=1.0|40=2|44=4000.0|59=4|10=200|
8=FIX.4.4|9=139|35=D|49=JOJOORDUAT|56=GEMINIORDUAT|34=45|52=20190329-07:45:48.240|11=43|55=BTCUSD|54=2|60=20190329-07:45:48.240|38=1.0|40=2|44=4000.0|59=4|10=202|
8=FIX.4.4|9=139|35=D|49=JOJOORDUAT|56=GEMINIORDUAT|34=46|52=20190329-07:45:48.241|11=44|55=BTCUSD|54=2|60=20190329-07:45:48.241|38=1.0|40=2|44=4000.0|59=4|10=206|
8=FIX.4.4|9=139|35=D|49=JOJOORDUAT|56=GEMINIORDUAT|34=47|52=20190329-07:45:48.241|11=45|55=BTCUSD|54=2|60=20190329-07:45:48.241|38=1.0|40=2|44=4000.0|59=4|10=208|
8=FIX.4.4|9=139|35=D|49=JOJOORDUAT|56=GEMINIORDUAT|34=48|52=20190329-07:45:48.241|11=46|55=BTCUSD|54=2|60=20190329-07:45:48.241|38=1.0|40=2|44=4000.0|59=4|10=210|
8=FIX.4.4|9=139|35=D|49=JOJOORDUAT|56=GEMINIORDUAT|34=49|52=20190329-07:45:48.241|11=47|55=BTCUSD|54=2|60=20190329-07:45:48.241|38=1.0|40=2|44=4000.0|59=4|10=212|
8=FIX.4.4|9=139|35=D|49=JOJOORDUAT|56=GEMINIORDUAT|34=50|52=20190329-07:45:48.241|11=48|55=BTCUSD|54=2|60=20190329-07:45:48.241|38=1.0|40=2|44=4000.0|59=4|10=205|
8=FIX.4.4|9=139|35=D|49=JOJOORDUAT|56=GEMINIORDUAT|34=51|52=20190329-07:45:48.241|11=49|55=BTCUSD|54=2|60=20190329-07:45:48.241|38=1.0|40=2|44=4000.0|59=4|10=207|
8=FIX.4.4|9=139|35=D|49=JOJOORDUAT|56=GEMINIORDUAT|34=52|52=20190329-07:45:48.241|11=50|55=BTCUSD|54=2|60=20190329-07:45:48.241|38=1.0|40=2|44=4000.0|59=4|10=200|
8=FIX.4.4|9=139|35=D|49=JOJOORDUAT|56=GEMINIORDUAT|34=53|52=20190329-07:45:48.241|11=51|55=BTCUSD|54=2|60=20190329-07:45:48.241|38=1.0|40=2|44=4000.0|59=4|10=202|
8=FIX.4.4|9=139|35=D|49=JOJOORDUAT|56=GEMINIORDUAT|34=54|52=20190329-07:45:48.241|11=52|55=BTCUSD|54=2|60=20190329-07:45:48.241|38=1.0|40=2|44=4000.0|59=4|10=204|
8=FIX.4.4|9=139|35=D|49=JOJOORDUAT|56=GEMINIORDUAT|34=55|52=20190329-07:45:48.242|11=53|55=BTCUSD|54=2|60=20190329-07:45:48.242|38=1.0|40=2|44=4000.0|59=4|10=208|
8=FIX.4.4|9=139|35=D|49=JOJOORDUAT|56=GEMINIORDUAT|34=56|52=20190329-07:45:48.242|11=54|55=BTCUSD|54=2|60=20190329-07:45:48.242|38=1.0|40=2|44=4000.0|59=4|10=210|
8=FIX.4.4|9=139|35=D|49=JOJOORDUAT|56=GEMINIORDUAT|34=57|52=20190329-07:45:48.242|11=55|55=BTCUSD|54=2|60=20190329-07:45:48.242|38=1.0|40=2|44=4000.0|59=4|10=212|
8=FIX.4.4|9=139|35=D|49=JOJOORDUAT|56=GEMINIORDUAT|34=58|52=20190329-07:45:48.242|11=56|55=BTCUSD|54=2|60=20190329-07:45:48.242|38=1.0|40=2|44=4000.0|59=4|10=214|
8=FIX.4.4|9=139|35=D|49=JOJOORDUAT|56=GEMINIORDUAT|34=59|52=20190329-07:45:48.242|11=57|55=BTCUSD|54=2|60=20190329-07:45:48.242|38=1.0|40=2|44=4000.0|59=4|10=216|
8=FIX.4.4|9=139|35=D|49=JOJOORDUAT|56=GEMINIORDUAT|34=60|52=20190329-07:45:48.242|11=58|55=BTCUSD|54=2|60=20190329-07:45:48.242|38=1.0|40=2|44=4000.0|59=4|10=209|
8=FIX.4.4|9=139|35=D|49=JOJOORDUAT|56=GEMINIORDUAT|34=61|52=20190329-07:45:48.242|11=59|55=BTCUSD|54=2|60=20190329-07:45:48.242|38=1.0|40=2|44=4000.0|59=4|10=211|
8=FIX.4.4|9=139|35=D|49=JOJOORDUAT|56=GEMINIORDUAT|34=62|52=20190329-07:45:48.242|11=60|55=BTCUSD|54=2|60=20190329-07:45:48.242|38=1.0|40=2|44=4000.0|59=4|10=204|
8=FIX.4.4|9=139|35=D|49=JOJOORDUAT|56=GEMINIORDUAT|34=63|52=20190329-07:45:48.242|11=61|55=BTCUSD|54=2|60=20190329-07:45:48.242|38=1.0|40=2|44=4000.0|59=4|10=206|
8=FIX.4.4|9=139|35=D|49=JOJOORDUAT|56=GEMINIORDUAT|34=64|52=20190329-07:45:48.243|11=62|55=BTCUSD|54=2|60=20190329-07:45:48.243|38=1.0|40=2|44=4000.0|59=4|10=210|
8=FIX.4.4|9=139|35=D|49=JOJOORDUAT|56=GEMINIORDUAT|34=65|52=20190329-07:45:48.243|11=63|55=BTCUSD|54=2|60=20190329-07:45:48.243|38=1.0|40=2|44=4000.0|59=4|10=212|
8=FIX.4.4|9=139|35=D|49=JOJOORDUAT|56=GEMINIORDUAT|34=66|52=20190329-07:45:48.243|11=64|55=BTCUSD|54=2|60=20190329-07:45:48.243|38=1.0|40=2|44=4000.0|59=4|10=214|
8=FIX.4.4|9=139|35=D|49=JOJOORDUAT|56=GEMINIORDUAT|34=67|52=20190329-07:45:48.243|11=65|55=BTCUSD|54=2|60=20190329-07:45:48.243|38=1.0|40=2|44=4000.0|59=4|10=216|
8=FIX.4.4|9=139|35=D|49=JOJOORDUAT|56=GEMINIORDUAT|34=68|52=20190329-07:45:48.243|11=66|55=BTCUSD|54=2|60=20190329-07:45:48.243|38=1.0|40=2|44=4000.0|59=4|10=218|
8=FIX.4.4|9=139|35=D|49=JOJOORDUAT|56=GEMINIORDUAT|34=69|52=20190329-07:45:48.243|11=67|55=BTCUSD|54=2|60=20190329-07:45:48.243|38=1.0|40=2|44=4000.0|59=4|10=220|
8=FIX.4.4|9=139|35=D|49=JOJOORDUAT|56=GEMINIORDUAT|34=70|52=20190329-07:45:48.243|11=68|55=BTCUSD|54=2|60=20190329-07:45:48.243|38=1.0|40=2|44=4000.0|59=4|10=213|
8=FIX.4.4|9=139|35=D|49=JOJOORDUAT|56=GEMINIORDUAT|34=71|52=20190329-07:45:48.243|11=69|55=BTCUSD|54=2|60=20190329-07:45:48.243|38=1.0|40=2|44=4000.0|59=4|10=215|
8=FIX.4.4|9=139|35=D|49=JOJOORDUAT|56=GEMINIORDUAT|34=72|52=20190329-07:45:48.243|11=70|55=BTCUSD|54=2|60=20190329-07:45:48.243|38=1.0|40=2|44=4000.0|59=4|10=208|
8=FIX.4.4|9=139|35=D|49=JOJOORDUAT|56=GEMINIORDUAT|34=73|52=20190329-07:45:48.243|11=71|55=BTCUSD|54=2|60=20190329-07:45:48.243|38=1.0|40=2|44=4000.0|59=4|10=210|
8=FIX.4.4|9=139|35=D|49=JOJOORDUAT|56=GEMINIORDUAT|34=74|52=20190329-07:45:48.243|11=72|55=BTCUSD|54=2|60=20190329-07:45:48.243|38=1.0|40=2|44=4000.0|59=4|10=212|
8=FIX.4.4|9=139|35=D|49=JOJOORDUAT|56=GEMINIORDUAT|34=75|52=20190329-07:45:48.244|11=73|55=BTCUSD|54=2|60=20190329-07:45:48.244|38=1.0|40=2|44=4000.0|59=4|10=216|
8=FIX.4.4|9=139|35=D|49=JOJOORDUAT|56=GEMINIORDUAT|34=76|52=20190329-07:45:48.244|11=74|55=BTCUSD|54=2|60=20190329-07:45:48.244|38=1.0|40=2|44=4000.0|59=4|10=218|
8=FIX.4.4|9=139|35=D|49=JOJOORDUAT|56=GEMINIORDUAT|34=77|52=20190329-07:45:48.244|11=75|55=BTCUSD|54=2|60=20190329-07:45:48.244|38=1.0|40=2|44=4000.0|59=4|10=220|
8=FIX.4.4|9=139|35=D|49=JOJOORDUAT|56=GEMINIORDUAT|34=78|52=20190329-07:45:48.244|11=76|55=BTCUSD|54=2|60=20190329-07:45:48.244|38=1.0|40=2|44=4000.0|59=4|10=222|
8=FIX.4.4|9=139|35=D|49=JOJOORDUAT|56=GEMINIORDUAT|34=79|52=20190329-07:45:48.244|11=77|55=BTCUSD|54=2|60=20190329-07:45:48.244|38=1.0|40=2|44=4000.0|59=4|10=224|
8=FIX.4.4|9=139|35=D|49=JOJOORDUAT|56=GEMINIORDUAT|34=80|52=20190329-07:45:48.244|11=78|55=BTCUSD|54=2|60=20190329-07:45:48.244|38=1.0|40=2|44=4000.0|59=4|10=217|
8=FIX.4.4|9=139|35=D|49=JOJOORDUAT|56=GEMINIORDUAT|34=81|52=20190329-07:45:48.244|11=79|55=BTCUSD|54=2|60=20190329-07:45:48.244|38=1.0|40=2|44=4000.0|59=4|10=219|
8=FIX.4.4|9=139|35=D|49=JOJOORDUAT|56=GEMINIORDUAT|34=82|52=20190329-07:45:48.244|11=80|55=BTCUSD|54=2|60=20190329-07:45:48.244|38=1.0|40=2|44=4000.0|59=4|10=212|
8=FIX.4.4|9=139|35=D|49=JOJOORDUAT|56=GEMINIORDUAT|34=83|52=20190329-07:45:48.244|11=81|55=BTCUSD|54=2|60=20190329-07:45:48.244|38=1.0|40=2|44=4000.0|59=4|10=214|
8=FIX.4.4|9=139|35=D|49=JOJOORDUAT|56=GEMINIORDUAT|34=84|52=20190329-07:45:48.244|11=82|55=BTCUSD|54=2|60=20190329-07:45:48.244|38=1.0|40=2|44=4000.0|59=4|10=216|
8=FIX.4.4|9=139|35=D|49=JOJOORDUAT|56=GEMINIORDUAT|34=85|52=20190329-07:45:48.244|11=83|55=BTCUSD|54=2|60=20190329-07:45:48.244|38=1.0|40=2|44=4000.0|59=4|10=218|
8=FIX.4.4|9=139|35=D|49=JOJOORDUAT|56=GEMINIORDUAT|34=86|52=20190329-07:45:48.244|11=84|55=BTCUSD|54=2|60=20190329-07:45:48.244|38=1.0|40=2|44=4000.0|59=4|10=220|
8=FIX.4.4|9=139|35=D|49=JOJOORDUAT|56=GEMINIORDUAT|34=87|52=20190329-07:45:48.244|11=85|55=BTCUSD|54=2|60=20190329-07:45:48.244|38=1.0|40=2|44=4000.0|59=4|10=222|
8=FIX.4.4|9=139|35=D|49=JOJOORDUAT|56=GEMINIORDUAT|34=88|52=20190329-07:45:48.244|11=86|55=BTCUSD|54=2|60=20190329-07:45:48.244|38=1.0|40=2|44=4000.0|59=4|10=224|
8=FIX.4.4|9=139|35=D|49=JOJOORDUAT|56=GEMINIORDUAT|34=89|52=20190329-07:45:48.244|11=87|55=BTCUSD|54=2|60=20190329-07:45:48.244|38=1.0|40=2|44=4000.0|59=4|10=226|
8=FIX.4.4|9=139|35=D|49=JOJOORDUAT|56=GEMINIORDUAT|34=90|52=20190329-07:45:48.244|11=88|55=BTCUSD|54=2|60=20190329-07:45:48.244|38=1.0|40=2|44=4000.0|59=4|10=219|
8=FIX.4.4|9=139|35=D|49=JOJOORDUAT|56=GEMINIORDUAT|34=91|52=20190329-07:45:48.244|11=89|55=BTCUSD|54=2|60=20190329-07:45:48.244|38=1.0|40=2|44=4000.0|59=4|10=221|
8=FIX.4.4|9=139|35=D|49=JOJOORDUAT|56=GEMINIORDUAT|34=92|52=20190329-07:45:48.244|11=90|55=BTCUSD|54=2|60=20190329-07:45:48.244|38=1.0|40=2|44=4000.0|59=4|10=214|
8=FIX.4.4|9=139|35=D|49=JOJOORDUAT|56=GEMINIORDUAT|34=93|52=20190329-07:45:48.244|11=91|55=BTCUSD|54=2|60=20190329-07:45:48.244|38=1.0|40=2|44=4000.0|59=4|10=216|
8=FIX.4.4|9=139|35=D|49=JOJOORDUAT|56=GEMINIORDUAT|34=94|52=20190329-07:45:48.244|11=92|55=BTCUSD|54=2|60=20190329-07:45:48.244|38=1.0|40=2|44=4000.0|59=4|10=218|
8=FIX.4.4|9=139|35=D|49=JOJOORDUAT|56=GEMINIORDUAT|34=95|52=20190329-07:45:48.244|11=93|55=BTCUSD|54=2|60=20190329-07:45:48.244|38=1.0|40=2|44=4000.0|59=4|10=220|
8=FIX.4.4|9=139|35=D|49=JOJOORDUAT|56=GEMINIORDUAT|34=96|52=20190329-07:45:48.244|11=94|55=BTCUSD|54=2|60=20190329-07:45:48.244|38=1.0|40=2|44=4000.0|59=4|10=222|
8=FIX.4.4|9=139|35=D|49=JOJOORDUAT|56=GEMINIORDUAT|34=97|52=20190329-07:45:48.244|11=95|55=BTCUSD|54=2|60=20190329-07:45:48.244|38=1.0|40=2|44=4000.0|59=4|10=224|
8=FIX.4.4|9=139|35=D|49=JOJOORDUAT|56=GEMINIORDUAT|34=98|52=20190329-07:45:48.244|11=96|55=BTCUSD|54=2|60=20190329-07:45:48.244|38=1.0|40=2|44=4000.0|59=4|10=226|
8=FIX.4.4|9=139|35=D|49=JOJOORDUAT|56=GEMINIORDUAT|34=99|52=20190329-07:45:48.245|11=97|55=BTCUSD|54=2|60=20190329-07:45:48.245|38=1.0|40=2|44=4000.0|59=4|10=230|
8=FIX.4.4|9=140|35=D|49=JOJOORDUAT|56=GEMINIORDUAT|34=100|52=20190329-07:45:48.245|11=98|55=BTCUSD|54=2|60=20190329-07:45:48.245|38=1.0|40=2|44=4000.0|59=4|10=254|
8=FIX.4.4|9=140|35=D|49=JOJOORDUAT|56=GEMINIORDUAT|34=101|52=20190329-07:45:48.245|11=99|55=BTCUSD|54=2|60=20190329-07:45:48.245|38=1.0|40=2|44=4000.0|59=4|10=000|
8=FIX.4.4|9=186|35=8|34=2|49=GEMINIORDUAT|52=20190329-07:45:48.384|56=JOJOORDUAT|6=0|11=0|14=0|17=182168543|37=182168542|38=1.0|39=0|44=4000.0|54=2|55=BTCUSD|59=4|60=20190329-07:45:48.367|150=0|151=1.0|10=067|
8=FIX.4.4|9=268|35=8|34=3|49=GEMINIORDUAT|52=20190329-07:45:48.387|56=JOJOORDUAT|6=4035.27|11=0|12=2.2925712614910|13=3|14=0.1623238|17=182168544|31=4035.27|32=0.1623238|37=182168542|38=1.0|39=1|44=4000.0|54=2|55=BTCUSD|59=4|60=20190329-07:45:48.367|150=F|151=0.8376762|479=USD|851=2|10=050|
8=FIX.4.4|9=272|35=8|34=4|49=GEMINIORDUAT|52=20190329-07:45:48.388|56=JOJOORDUAT|6=4035.2494537334|11=0|12=2.42129940920|13=3|14=0.3337638|17=182168546|31=4035.23|32=0.17144|37=182168542|38=1.0|39=1|44=4000.0|54=2|55=BTCUSD|59=4|60=20190329-07:45:48.367|150=F|151=0.6662362|479=USD|851=2|10=001|
8=FIX.4.4|9=270|35=8|34=5|49=GEMINIORDUAT|52=20190329-07:45:48.389|56=JOJOORDUAT|6=4035.2322440779|11=0|12=2.5159068480|13=3|14=0.5119038|17=182168548|31=4035.2|32=0.17814|37=182168542|38=1.0|39=1|44=4000.0|54=2|55=BTCUSD|59=4|60=20190329-07:45:48.367|150=F|151=0.4880962|479=USD|851=2|10=164|
8=FIX.4.4|9=272|35=8|34=6|49=GEMINIORDUAT|52=20190329-07:45:48.389|56=JOJOORDUAT|6=4035.1031225638|11=0|12=3.29689177020|13=3|14=0.7453638|17=182168550|31=4034.82|32=0.23346|37=182168542|38=1.0|39=1|44=4000.0|54=2|55=BTCUSD|59=4|60=20190329-07:45:48.367|150=F|151=0.2546362|479=USD|851=2|10=001|
8=FIX.4.4|9=270|35=8|34=7|49=GEMINIORDUAT|52=20190329-07:45:48.390|56=JOJOORDUAT|6=4035.0253521667|11=0|12=3.4781907195|13=3|14=0.9916638|17=182168552|31=4034.79|32=0.2463|37=182168542|38=1.0|39=1|44=4000.0|54=2|55=BTCUSD|59=4|60=20190329-07:45:48.367|150=F|151=0.0083362|479=USD|851=2|10=163|
8=FIX.4.4|9=267|35=8|34=8|49=GEMINIORDUAT|52=20190329-07:45:48.390|56=JOJOORDUAT|6=4035.022556604|11=0|12=0.1177189397230|13=3|14=1.0000000|17=182168554|31=4034.69|32=0.0083362|37=182168542|38=1.0|39=2|44=4000.0|54=2|55=BTCUSD|59=4|60=20190329-07:45:48.367|150=F|151=0|479=USD|851=2|10=227|
8=FIX.4.4|9=186|35=8|34=9|49=GEMINIORDUAT|52=20190329-07:45:48.393|56=JOJOORDUAT|6=0|11=1|14=0|17=182168558|37=182168557|38=1.0|39=0|44=4000.0|54=2|55=BTCUSD|59=4|60=20190329-07:45:48.371|150=0|151=1.0|10=082|
8=FIX.4.4|9=269|35=8|34=10|49=GEMINIORDUAT|52=20190329-07:45:48.394|56=JOJOORDUAT|6=4034.69|11=1|12=4.1067023575270|13=3|14=0.2908138|17=182168559|31=4034.69|32=0.2908138|37=182168557|38=1.0|39=1|44=4000.0|54=2|55=BTCUSD|59=4|60=20190329-07:45:48.371|150=F|151=0.7091862|479=USD|851=2|10=117|
8=FIX.4.4|9=273|35=8|34=11|49=GEMINIORDUAT|52=20190329-07:45:48.395|56=JOJOORDUAT|6=4034.6688395504|11=1|12=4.61257326600|13=3|14=0.6174538|17=182168561|31=4034.65|32=0.32664|37=182168557|38=1.0|39=1|44=4000.0|54=2|55=BTCUSD|59=4|60=20190329-07:45:48.371|150=F|151=0.3825462|479=USD|851=2|10=061|
8=FIX.4.4|9=273|35=8|34=12|49=GEMINIORDUAT|52=20190329-07:45:48.397|56=JOJOORDUAT|6=4034.6405006412|11=1|12=4.89280781185|13=3|14=0.9639438|17=182168563|31=4034.59|32=0.34649|37=182168557|38=1.0|39=1|44=4000.0|54=2|55=BTCUSD|59=4|60=20190329-07:45:48.371|150=F|151=0.0360562|479=USD|851=2|10=067|
8=FIX.4.4|9=268|35=8|34=13|49=GEMINIORDUAT|52=20190329-07:45:48.399|56=JOJOORDUAT|6=4034.637958656|11=1|12=0.5091494199190|13=3|14=1.0000000|17=182168565|31=4034.57|32=0.0360562|37=182168557|38=1.0|39=2|44=4000.0|54=2|55=BTCUSD|59=4|60=20190329-07:45:48.371|150=F|151=0|479=USD|851=2|10=053|
8=FIX.4.4|9=187|35=8|34=14|49=GEMINIORDUAT|52=20190329-07:45:48.400|56=JOJOORDUAT|6=0|11=2|14=0|17=182168569|37=182168568|38=1.0|39=0|44=4000.0|54=2|55=BTCUSD|59=4|60=20190329-07:45:48.386|150=0|151=1.0|10=127|
8=FIX.4.4|9=269|35=8|34=15|49=GEMINIORDUAT|52=20190329-07:45:48.402|56=JOJOORDUAT|6=4034.57|11=2|12=4.5583108457810|13=3|14=0.3228038|17=182168570|31=4034.57|32=0.3228038|37=182168568|38=1.0|39=1|44=4000.0|54=2|55=BTCUSD|59=4|60=20190329-07:45:48.386|150=F|151=0.6771962|479=USD|851=2|10=113|
8=FIX.4.4|9=273|35=8|34=16|49=GEMINIORDUAT|52=20190329-07:45:48.403|56=JOJOORDUAT|6=4034.4352337676|11=2|12=5.33062770240|13=3|14=0.7003238|17=182168572|31=4034.32|32=0.37752|37=182168568|38=1.0|39=1|44=4000.0|54=2|55=BTCUSD|59=4|60=20190329-07:45:48.386|150=F|151=0.2996762|479=USD|851=2|10=053|
8=FIX.4.4|9=268|35=8|34=17|49=GEMINIORDUAT|52=20190329-07:45:48.405|56=JOJOORDUAT|6=4034.331775424|11=2|12=4.2312226658030|13=3|14=1.0000000|17=182168574|31=4034.09|32=0.2996762|37=182168568|38=1.0|39=2|44=4000.0|54=2|55=BTCUSD|59=4|60=20190329-07:45:48.386|150=F|151=0|479=USD|851=2|10=034|
8=FIX.4.4|9=187|35=8|34=18|49=GEMINIORDUAT|52=20190329-07:45:48.406|56=JOJOORDUAT|6=0|11=3|14=0|17=182168578|37=182168577|38=1.0|39=0|44=4000.0|54=2|55=BTCUSD|59=4|60=20190329-07:45:48.397|150=0|151=1.0|10=140|
8=FIX.4.4|9=269|35=8|34=19|49=GEMINIORDUAT|52=20190329-07:45:48.407|56=JOJOORDUAT|6=4034.09|11=3|12=1.4327405464470|13=3|14=0.1014738|17=182168579|31=4034.09|32=0.1014738|37=182168577|38=1.0|39=1|44=4000.0|54=2|55=BTCUSD|59=4|60=20190329-07:45:48.397|150=F|151=0.8985262|479=USD|851=2|10=118|
8=FIX.4.4|9=273|35=8|34=20|49=GEMINIORDUAT|52=20190329-07:45:48.408|56=JOJOORDUAT|6=4033.9610226237|11=3|12=5.95642035940|13=3|14=0.5233538|17=182168581|31=4033.93|32=0.42188|37=182168577|38=1.0|39=1|44=4000.0|54=2|55=BTCUSD|59=4|60=20190329-07:45:48.397|150=F|151=0.4766462|479=USD|851=2|10=065|
8=FIX.4.4|9=267|35=8|34=21|49=GEMINIORDUAT|52=20190329-07:45:48.411|56=JOJOORDUAT|6=4033.90333765|11=3|12=6.7295007759280|13=3|14=1.0000000|17=182168583|31=4033.84|32=0.4766462|37=182168577|38=1.0|39=2|44=4000.0|54=2|55=BTCUSD|59=4|60=20190329-07:45:48.397|150=F|151=0|479=USD|851=2|10=254|
8=FIX.4.4|9=187|35=8|34=22|49=GEMINIORDUAT|52=20190329-07:45:48.416|56=JOJOORDUAT|6=0|11=4|14=0|17=182168587|37=182168586|38=1.0|39=0|44=4000.0|54=2|55=BTCUSD|59=4|60=20190329-07:45:48.410|150=0|151=1.0|10=123|
8=FIX.4.4|9=269|35=8|34=23|49=GEMINIORDUAT|52=20190329-07:45:48.418|56=JOJOORDUAT|6=4033.84|11=4|12=0.1751223060720|13=3|14=0.0124038|17=182168588|31=4033.84|32=0.0124038|37=182168586|38=1.0|39=1|44=4000.0|54=2|55=BTCUSD|59=4|60=20190329-07:45:48.410|150=F|151=0.9875962|479=USD|851=2|10=085|
8=FIX.4.4|9=273|35=8|34=24|49=GEMINIORDUAT|52=20190329-07:45:48.420|56=JOJOORDUAT|6=4033.4782970992|11=4|12=7.63356381585|13=3|14=0.5531338|17=182168590|31=4033.47|32=0.54073|37=182168586|38=1.0|39=1|44=4000.0|54=2|55=BTCUSD|59=4|60=20190329-07:45:48.410|150=F|151=0.4468662|479=USD|851=2|10=072|
8=FIX.4.4|9=267|35=8|34=25|49=GEMINIORDUAT|52=20190329-07:45:48.421|56=JOJOORDUAT|6=4033.39415349|11=4|12=6.3081934152930|13=3|14=1.0000000|17=182168592|31=4033.29|32=0.4468662|37=182168586|38=1.0|39=2|44=4000.0|54=2|55=BTCUSD|59=4|60=20190329-07:45:48.410|150=F|151=0|479=USD|851=2|10=235|
8=FIX.4.4|9=187|35=8|34=26|49=GEMINIORDUAT|52=20190329-07:45:48.422|56=JOJOORDUAT|6=0|11=5|14=0|17=182168596|37=182168595|38=1.0|39=0|44=4000.0|54=2|55=BTCUSD|59=4|60=20190329-07:45:48.417|150=0|151=1.0|10=132|
8=FIX.4.4|9=269|35=8|34=27|49=GEMINIORDUAT|52=20190329-07:45:48.423|56=JOJOORDUAT|6=4033.29|11=5|12=1.4516548802070|13=3|14=0.1028338|17=182168597|31=4033.29|32=0.1028338|37=182168595|38=1.0|39=1|44=4000.0|54=2|55=BTCUSD|59=4|60=20190329-07:45:48.417|150=F|151=0.8971662|479=USD|851=2|10=113|
8=FIX.4.4|9=273|35=8|34=28|49=GEMINIORDUAT|52=20190329-07:45:48.425|56=JOJOORDUAT|6=4033.2815416118|11=5|12=7.96480034560|13=3|14=0.6670538|17=182168599|31=4033.28|32=0.56422|37=182168595|38=1.0|39=1|44=4000.0|54=2|55=BTCUSD|59=4|60=20190329-07:45:48.417|150=F|151=0.3329462|479=USD|851=2|10=069|
8=FIX.4.4|9=268|35=8|34=29|49=GEMINIORDUAT|52=20190329-07:45:48.426|56=JOJOORDUAT|6=4033.281028338|11=5|12=4.7000283733760|13=3|14=1.0000000|17=182168601|31=4033.28|32=0.3329462|37=182168595|38=1.0|39=2|44=4000.0|54=2|55=BTCUSD|59=4|60=20190329-07:45:48.417|150=F|151=0|479=USD|851=2|10=021|
8=FIX.4.4|9=187|35=8|34=30|49=GEMINIORDUAT|52=20190329-07:45:48.435|56=JOJOORDUAT|6=0|11=6|14=0|17=182168605|37=182168604|38=1.0|39=0|44=4000.0|54=2|55=BTCUSD|59=4|60=20190329-07:45:48.432|150=0|151=1.0|10=111|
8=FIX.4.4|9=269|35=8|34=31|49=GEMINIORDUAT|52=20190329-07:45:48.436|56=JOJOORDUAT|6=4033.28|11=6|12=3.9200589738240|13=3|14=0.2776938|17=182168606|31=4033.28|32=0.2776938|37=182168604|38=1.0|39=1|44=4000.0|54=2|55=BTCUSD|59=4|60=20190329-07:45:48.432|150=F|151=0.7223062|479=USD|851=2|10=116|
8=FIX.4.4|9=273|35=8|34=32|49=GEMINIORDUAT|52=20190329-07:45:48.437|56=JOJOORDUAT|6=4032.9978525476|11=6|12=8.64998187690|13=3|14=0.8905138|17=182168608|31=4032.87|32=0.61282|37=182168604|38=1.0|39=1|44=4000.0|54=2|55=BTCUSD|59=4|60=20190329-07:45:48.432|150=F|151=0.1094862|479=USD|851=2|10=098|
8=FIX.4.4|9=268|35=8|34=33|49=GEMINIORDUAT|52=20190329-07:45:48.438|56=JOJOORDUAT|6=4032.977285286|11=6|12=1.5453796477770|13=3|14=1.0000000|17=182168610|31=4032.81|32=0.1094862|37=182168604|38=1.0|39=2|44=4000.0|54=2|55=BTCUSD|59=4|60=20190329-07:45:48.432|150=F|151=0|479=USD|851=2|10=047|
8=FIX.4.4|9=187|35=8|34=34|49=GEMINIORDUAT|52=20190329-07:45:48.442|56=JOJOORDUAT|6=0|11=7|14=0|17=182168614|37=182168613|38=1.0|39=0|44=4000.0|54=2|55=BTCUSD|59=4|60=20190329-07:45:48.440|150=0|151=1.0|10=113|
8=FIX.4.4|9=269|35=8|34=35|49=GEMINIORDUAT|52=20190329-07:45:48.443|56=JOJOORDUAT|6=4032.81|11=7|12=7.5880477840230|13=3|14=0.5375938|17=182168615|31=4032.81|32=0.5375938|37=182168613|38=1.0|39=1|44=4000.0|54=2|55=BTCUSD|59=4|60=20190329-07:45:48.440|150=F|151=0.4624062|479=USD|851=2|10=115|
8=FIX.4.4|9=267|35=8|34=36|49=GEMINIORDUAT|52=20190329-07:45:48.444|56=JOJOORDUAT|6=4032.71751876|11=7|12=6.5264635316370|13=3|14=1.0000000|17=182168617|31=4032.61|32=0.4624062|37=182168613|38=1.0|39=2|44=4000.0|54=2|55=BTCUSD|59=4|60=20190329-07:45:48.440|150=F|151=0|479=USD|851=2|10=226|
8=FIX.4.4|9=187|35=8|34=37|49=GEMINIORDUAT|52=20190329-07:45:48.448|56=JOJOORDUAT|6=0|11=8|14=0|17=182168621|37=182168620|38=1.0|39=0|44=4000.0|54=2|55=BTCUSD|59=4|60=20190329-07:45:48.447|150=0|151=1.0|10=126|
8=FIX.4.4|9=269|35=8|34=38|49=GEMINIORDUAT|52=20190329-07:45:48.450|56=JOJOORDUAT|6=4032.61|11=8|12=2.8069316611630|13=3|14=0.1988738|17=182168622|31=4032.61|32=0.1988738|37=182168620|38=1.0|39=1|44=4000.0|54=2|55=BTCUSD|59=4|60=20190329-07:45:48.447|150=F|151=0.8011262|479=USD|851=2|10=109|
8=FIX.4.4|9=273|35=8|34=39|49=GEMINIORDUAT|52=20190329-07:45:48.452|56=JOJOORDUAT|6=4032.4868607432|11=8|12=9.37663582275|13=3|14=0.8632438|17=182168624|31=4032.45|32=0.66437|37=182168620|38=1.0|39=1|44=4000.0|54=2|55=BTCUSD|59=4|60=20190329-07:45:48.447|150=F|151=0.1367562|479=USD|851=2|10=081|
8=FIX.4.4|9=268|35=8|34=40|49=GEMINIORDUAT|52=20190329-07:45:48.454|56=JOJOORDUAT|6=4032.466776626|11=8|12=1.9300662342780|13=3|14=1.0000000|17=182168626|31=4032.34|32=0.1367562|37=182168620|38=1.0|39=2|44=4000.0|54=2|55=BTCUSD|59=4|60=20190329-07:45:48.447|150=F|151=0|479=USD|851=2|10=029|
8=FIX.4.4|9=187|35=8|34=41|49=GEMINIORDUAT|52=20190329-07:45:48.459|56=JOJOORDUAT|6=0|11=9|14=0|17=182168630|37=182168629|38=1.0|39=0|44=4000.0|54=2|55=BTCUSD|59=4|60=20190329-07:45:48.451|150=0|151=1.0|10=128|
8=FIX.4.4|9=269|35=8|34=42|49=GEMINIORDUAT|52=20190329-07:45:48.463|56=JOJOORDUAT|6=4032.34|11=9|12=7.4672013272220|13=3|14=0.5290938|17=182168631|31=4032.34|32=0.5290938|37=182168629|38=1.0|39=1|44=4000.0|54=2|55=BTCUSD|59=4|60=20190329-07:45:48.451|150=F|151=0.4709062|479=USD|851=2|10=098|
8=FIX.4.4|9=268|35=8|34=43|49=GEMINIORDUAT|52=20190329-07:45:48.467|56=JOJOORDUAT|6=4031.807875994|11=9|12=6.6441262387570|13=3|14=1.0000000|17=182168633|31=4031.21|32=0.4709062|37=182168629|38=1.0|39=2|44=4000.0|54=2|55=BTCUSD|59=4|60=20190329-07:45:48.451|150=F|151=0|479=USD|851=2|10=048|
8=FIX.4.4|9=188|35=8|34=44|49=GEMINIORDUAT|52=20190329-07:45:48.471|56=JOJOORDUAT|6=0|11=10|14=0|17=182168637|37=182168636|38=1.0|39=0|44=4000.0|54=2|55=BTCUSD|59=4|60=20190329-07:45:48.454|150=0|151=1.0|10=174|
8=FIX.4.4|9=270|35=8|34=45|49=GEMINIORDUAT|52=20190329-07:45:48.473|56=JOJOORDUAT|6=4031.21|11=10|12=3.1687056113930|13=3|14=0.2245838|17=182168638|31=4031.21|32=0.2245838|37=182168636|38=1.0|39=1|44=4000.0|54=2|55=BTCUSD|59=4|60=20190329-07:45:48.454|150=F|151=0.7754162|479=USD|851=2|10=136|
8=FIX.4.4|9=275|35=8|34=46|49=GEMINIORDUAT|52=20190329-07:45:48.476|56=JOJOORDUAT|6=4031.1413164394|11=10|12=10.20963777960|13=3|14=0.9482138|17=182168640|31=4031.12|32=0.72363|37=182168636|38=1.0|39=1|44=4000.0|54=2|55=BTCUSD|59=4|60=20190329-07:45:48.454|150=F|151=0.0517862|479=USD|851=2|10=148|
8=FIX.4.4|9=268|35=8|34=47|49=GEMINIORDUAT|52=20190329-07:45:48.478|56=JOJOORDUAT|6=4031.13969468|11=10|12=0.7306455403870|13=3|14=1.0000000|17=182168642|31=4031.11|32=0.0517862|37=182168636|38=1.0|39=2|44=4000.0|54=2|55=BTCUSD|59=4|60=20190329-07:45:48.454|150=F|151=0|479=USD|851=2|10=027|
8=FIX.4.4|9=188|35=8|34=48|49=GEMINIORDUAT|52=20190329-07:45:48.481|56=JOJOORDUAT|6=0|11=11|14=0|17=182168646|37=182168645|38=1.0|39=0|44=4000.0|54=2|55=BTCUSD|59=4|60=20190329-07:45:48.456|150=0|151=1.0|10=182|
8=FIX.4.4|9=270|35=8|34=49|49=GEMINIORDUAT|52=20190329-07:45:48.484|56=JOJOORDUAT|6=4031.11|11=11|12=9.7948648473130|13=3|14=0.6942338|17=182168647|31=4031.11|32=0.6942338|37=182168645|38=1.0|39=1|44=4000.0|54=2|55=BTCUSD|59=4|60=20190329-07:45:48.456|150=F|151=0.3057662|479=USD|851=2|10=166|
8=FIX.4.4|9=269|35=8|34=50|49=GEMINIORDUAT|52=20190329-07:45:48.486|56=JOJOORDUAT|6=4031.058019746|11=11|12=4.3138382217980|13=3|14=1.0000000|17=182168649|31=4030.94|32=0.3057662|37=182168645|38=1.0|39=2|44=4000.0|54=2|55=BTCUSD|59=4|60=20190329-07:45:48.456|150=F|151=0|479=USD|851=2|10=090|
8=FIX.4.4|9=188|35=8|34=51|49=GEMINIORDUAT|52=20190329-07:45:48.488|56=JOJOORDUAT|6=0|11=12|14=0|17=182168653|37=182168652|38=1.0|39=0|44=4000.0|54=2|55=BTCUSD|59=4|60=20190329-07:45:48.459|150=0|151=1.0|10=183|
8=FIX.4.4|9=270|35=8|34=52|49=GEMINIORDUAT|52=20190329-07:45:48.491|56=JOJOORDUAT|6=4030.94|11=12|12=6.2593375529020|13=3|14=0.4436638|17=182168654|31=4030.94|32=0.4436638|37=182168652|38=1.0|39=1|44=4000.0|54=2|55=BTCUSD|59=4|60=20190329-07:45:48.459|150=F|151=0.5563362|479=USD|851=2|10=162|
8=FIX.4.4|9=269|35=8|34=53|49=GEMINIORDUAT|52=20190329-07:45:48.494|56=JOJOORDUAT|6=4030.795352588|11=12|12=7.8484461811560|13=3|14=1.0000000|17=182168656|31=4030.68|32=0.5563362|37=182168652|38=1.0|39=2|44=4000.0|54=2|55=BTCUSD|59=4|60=20190329-07:45:48.459|150=F|151=0|479=USD|851=2|10=109|
8=FIX.4.4|9=188|35=8|34=54|49=GEMINIORDUAT|52=20190329-07:45:48.496|56=JOJOORDUAT|6=0|11=13|14=0|17=182168660|37=182168659|38=1.0|39=0|44=4000.0|54=2|55=BTCUSD|59=4|60=20190329-07:45:48.462|150=0|151=1.0|10=185|
8=FIX.4.4|9=270|35=8|34=55|49=GEMINIORDUAT|52=20190329-07:45:48.498|56=JOJOORDUAT|6=4030.68|11=13|12=2.9152026112440|13=3|14=0.2066438|17=182168661|31=4030.68|32=0.2066438|37=182168659|38=1.0|39=1|44=4000.0|54=2|55=BTCUSD|59=4|60=20190329-07:45:48.462|150=F|151=0.7933562|479=USD|851=2|10=150|
8=FIX.4.4|9=270|35=8|34=56|49=GEMINIORDUAT|52=20190329-07:45:48.500|56=JOJOORDUAT|6=4030.473727388|11=13|12=11.1914554346140|13=3|14=1.0000000|17=182168663|31=4030.42|32=0.7933562|37=182168659|38=1.0|39=2|44=4000.0|54=2|55=BTCUSD|59=4|60=20190329-07:45:48.462|150=F|151=0|479=USD|851=2|10=120|
8=FIX.4.4|9=188|35=8|34=57|49=GEMINIORDUAT|52=20190329-07:45:48.502|56=JOJOORDUAT|6=0|11=14|14=0|17=182168667|37=182168666|38=1.0|39=0|44=4000.0|54=2|55=BTCUSD|59=4|60=20190329-07:45:48.466|150=0|151=1.0|10=186|
8=FIX.4.4|9=270|35=8|34=58|49=GEMINIORDUAT|52=20190329-07:45:48.505|56=JOJOORDUAT|6=4030.42|11=14|12=0.0631095254860|13=3|14=0.0044738|17=182168668|31=4030.42|32=0.0044738|37=182168666|38=1.0|39=1|44=4000.0|54=2|55=BTCUSD|59=4|60=20190329-07:45:48.466|150=F|151=0.9955262|479=USD|851=2|10=143|
8=FIX.4.4|9=275|35=8|34=59|49=GEMINIORDUAT|52=20190329-07:45:48.507|56=JOJOORDUAT|6=4030.3404448478|11=14|12=11.28608049520|13=3|14=0.8045538|17=182168670|31=4030.34|32=0.80008|37=182168666|38=1.0|39=1|44=4000.0|54=2|55=BTCUSD|59=4|60=20190329-07:45:48.466|150=F|151=0.1954462|479=USD|851=2|10=156|
8=FIX.4.4|9=268|35=8|34=60|49=GEMINIORDUAT|52=20190329-07:45:48.509|56=JOJOORDUAT|6=4030.30713205|11=14|12=2.7568849414890|13=3|14=1.0000000|17=182168672|31=4030.17|32=0.1954462|37=182168666|38=1.0|39=2|44=4000.0|54=2|55=BTCUSD|59=4|60=20190329-07:45:48.466|150=F|151=0|479=USD|851=2|10=034|
8=FIX.4.4|9=188|35=8|34=61|49=GEMINIORDUAT|52=20190329-07:45:48.509|56=JOJOORDUAT|6=0|11=15|14=0|17=182168676|37=182168675|38=1.0|39=0|44=4000.0|54=2|55=BTCUSD|59=4|60=20190329-07:45:48.468|150=0|151=1.0|10=191|
8=FIX.4.4|9=270|35=8|34=62|49=GEMINIORDUAT|52=20190329-07:45:48.511|56=JOJOORDUAT|6=4030.17|11=15|12=8.7867108386610|13=3|14=0.6229238|17=182168677|31=4030.17|32=0.6229238|37=182168675|38=1.0|39=1|44=4000.0|54=2|55=BTCUSD|59=4|60=20190329-07:45:48.468|150=F|151=0.3770762|479=USD|851=2|10=168|
8=FIX.4.4|9=269|35=8|34=63|49=GEMINIORDUAT|52=20190329-07:45:48.512|56=JOJOORDUAT|6=4030.090813998|11=15|12=5.3186070103320|13=3|14=1.0000000|17=182168679|31=4029.96|32=0.3770762|37=182168675|38=1.0|39=2|44=4000.0|54=2|55=BTCUSD|59=4|60=20190329-07:45:48.468|150=F|151=0|479=USD|851=2|10=096|
8=FIX.4.4|9=188|35=8|34=64|49=GEMINIORDUAT|52=20190329-07:45:48.582|56=JOJOORDUAT|6=0|11=16|14=0|17=182168683|37=182168682|38=1.0|39=0|44=4000.0|54=2|55=BTCUSD|59=4|60=20190329-07:45:48.581|150=0|151=1.0|10=188|
8=FIX.4.4|9=270|35=8|34=65|49=GEMINIORDUAT|52=20190329-07:45:48.583|56=JOJOORDUAT|6=4029.96|11=16|12=6.2573926402680|13=3|14=0.4436338|17=182168684|31=4029.96|32=0.4436338|37=182168682|38=1.0|39=1|44=4000.0|54=2|55=BTCUSD|59=4|60=20190329-07:45:48.581|150=F|151=0.5563662|479=USD|851=2|10=193|
8=FIX.4.4|9=269|35=8|34=66|49=GEMINIORDUAT|52=20190329-07:45:48.584|56=JOJOORDUAT|6=4029.948872676|11=16|12=7.8474284140980|13=3|14=1.0000000|17=182168686|31=4029.94|32=0.5563662|37=182168682|38=1.0|39=2|44=4000.0|54=2|55=BTCUSD|59=4|60=20190329-07:45:48.581|150=F|151=0|479=USD|851=2|10=145|
8=FIX.4.4|9=188|35=8|34=67|49=GEMINIORDUAT|52=20190329-07:45:48.599|56=JOJOORDUAT|6=0|11=17|14=0|17=182168690|37=182168689|38=1.0|39=0|44=4000.0|54=2|55=BTCUSD|59=4|60=20190329-07:45:48.586|150=0|151=1.0|10=210|
8=FIX.4.4|9=270|35=8|34=68|49=GEMINIORDUAT|52=20190329-07:45:48.599|56=JOJOORDUAT|6=4029.94|11=17|12=4.2340294604020|13=3|14=0.3001838|17=182168691|31=4029.94|32=0.3001838|37=182168689|38=1.0|39=1|44=4000.0|54=2|55=BTCUSD|59=4|60=20190329-07:45:48.586|150=F|151=0.6998162|479=USD|851=2|10=182|
8=FIX.4.4|9=262|35=8|34=69|49=GEMINIORDUAT|52=20190329-07:45:48.600|56=JOJOORDUAT|6=4029.94|11=17|12=9.8707605395980|13=3|14=1.0000000|17=182168693|31=4029.94|32=0.6998162|37=182168689|38=1.0|39=2|44=4000.0|54=2|55=BTCUSD|59=4|60=20190329-07:45:48.586|150=F|151=0|479=USD|851=2|10=035|
8=FIX.4.4|9=188|35=8|34=70|49=GEMINIORDUAT|52=20190329-07:45:48.601|56=JOJOORDUAT|6=0|11=18|14=0|17=182168697|37=182168696|38=1.0|39=0|44=4000.0|54=2|55=BTCUSD|59=4|60=20190329-07:45:48.589|150=0|151=1.0|10=197|
8=FIX.4.4|9=270|35=8|34=71|49=GEMINIORDUAT|52=20190329-07:45:48.601|56=JOJOORDUAT|6=4029.94|11=18|12=2.2912356858020|13=3|14=0.1624438|17=182168698|31=4029.94|32=0.1624438|37=182168696|38=1.0|39=1|44=4000.0|54=2|55=BTCUSD|59=4|60=20190329-07:45:48.589|150=F|151=0.8375562|479=USD|851=2|10=187|
8=FIX.4.4|9=270|35=8|34=72|49=GEMINIORDUAT|52=20190329-07:45:48.602|56=JOJOORDUAT|6=4029.805991008|11=18|12=11.8130852827260|13=3|14=1.0000000|17=182168700|31=4029.78|32=0.8375562|37=182168696|38=1.0|39=2|44=4000.0|54=2|55=BTCUSD|59=4|60=20190329-07:45:48.589|150=F|151=0|479=USD|851=2|10=151|
8=FIX.4.4|9=188|35=8|34=73|49=GEMINIORDUAT|52=20190329-07:45:48.605|56=JOJOORDUAT|6=0|11=19|14=0|17=182168704|37=182168703|38=1.0|39=0|44=4000.0|54=2|55=BTCUSD|59=4|60=20190329-07:45:48.601|150=0|151=1.0|10=168|
8=FIX.4.4|9=270|35=8|34=74|49=GEMINIORDUAT|52=20190329-07:45:48.606|56=JOJOORDUAT|6=4029.78|11=19|12=0.5032925224740|13=3|14=0.0356838|17=182168705|31=4029.78|32=0.0356838|37=182168703|38=1.0|39=1|44=4000.0|54=2|55=BTCUSD|59=4|60=20190329-07:45:48.601|150=F|151=0.9643162|479=USD|851=2|10=160|
8=FIX.4.4|9=273|35=8|34=75|49=GEMINIORDUAT|52=20190329-07:45:48.607|56=JOJOORDUAT|6=4029.7030677804|11=19|12=12.6210606970|13=3|14=0.9305438|17=182168707|31=4029.7|32=0.89486|37=182168703|38=1.0|39=1|44=4000.0|54=2|55=BTCUSD|59=4|60=20190329-07:45:48.601|150=F|151=0.0694562|479=USD|851=2|10=071|
8=FIX.4.4|9=269|35=8|34=76|49=GEMINIORDUAT|52=20190329-07:45:48.608|56=JOJOORDUAT|6=4029.686879778|11=19|12=0.9795508597490|13=3|14=1.0000000|17=182168709|31=4029.47|32=0.0694562|37=182168703|38=1.0|39=2|44=4000.0|54=2|55=BTCUSD|59=4|60=20190329-07:45:48.601|150=F|151=0|479=USD|851=2|10=146|
8=FIX.4.4|9=188|35=8|34=77|49=GEMINIORDUAT|52=20190329-07:45:48.610|56=JOJOORDUAT|6=0|11=20|14=0|17=182168713|37=182168712|38=1.0|39=0|44=4000.0|54=2|55=BTCUSD|59=4|60=20190329-07:45:48.608|150=0|151=1.0|10=167|
8=FIX.4.4|9=271|35=8|34=78|49=GEMINIORDUAT|52=20190329-07:45:48.611|56=JOJOORDUAT|6=4029.47|11=20|12=11.7537556664010|13=3|14=0.8334138|17=182168714|31=4029.47|32=0.8334138|37=182168712|38=1.0|39=1|44=4000.0|54=2|55=BTCUSD|59=4|60=20190329-07:45:48.608|150=F|151=0.1665862|479=USD|851=2|10=209|
8=FIX.4.4|9=268|35=8|34=79|49=GEMINIORDUAT|52=20190329-07:45:48.611|56=JOJOORDUAT|6=4029.46167069|11=20|12=2.3493601810140|13=3|14=1.0000000|17=182168716|31=4029.42|32=0.1665862|37=182168712|38=1.0|39=2|44=4000.0|54=2|55=BTCUSD|59=4|60=20190329-07:45:48.608|150=F|151=0|479=USD|851=2|10=026|
8=FIX.4.4|9=188|35=8|34=80|49=GEMINIORDUAT|52=20190329-07:45:48.621|56=JOJOORDUAT|6=0|11=21|14=0|17=182168720|37=182168719|38=1.0|39=0|44=4000.0|54=2|55=BTCUSD|59=4|60=20190329-07:45:48.618|150=0|151=1.0|10=170|
8=FIX.4.4|9=271|35=8|34=81|49=GEMINIORDUAT|52=20190329-07:45:48.622|56=JOJOORDUAT|6=4029.42|11=21|12=10.6776942376860|13=3|14=0.7571238|17=182168722|31=4029.42|32=0.7571238|37=182168719|38=1.0|39=1|44=4000.0|54=2|55=BTCUSD|59=4|60=20190329-07:45:48.618|150=F|151=0.2428762|479=USD|851=2|10=221|
8=FIX.4.4|9=267|35=8|34=82|49=GEMINIORDUAT|52=20190329-07:45:48.623|56=JOJOORDUAT|6=4029.415142476|11=21|12=3.425258760980|13=3|14=1.0000000|17=182168724|31=4029.4|32=0.2428762|37=182168719|38=1.0|39=2|44=4000.0|54=2|55=BTCUSD|59=4|60=20190329-07:45:48.618|150=F|151=0|479=USD|851=2|10=245|
8=FIX.4.4|9=188|35=8|34=83|49=GEMINIORDUAT|52=20190329-07:45:48.626|56=JOJOORDUAT|6=0|11=22|14=0|17=182168727|37=182168721|38=1.0|39=0|44=4000.0|54=2|55=BTCUSD|59=4|60=20190329-07:45:48.621|150=0|151=1.0|10=173|
8=FIX.4.4|9=268|35=8|34=84|49=GEMINIORDUAT|52=20190329-07:45:48.627|56=JOJOORDUAT|6=4029.4|11=22|12=10.323658449020|13=3|14=0.7320238|17=182168728|31=4029.4|32=0.7320238|37=182168721|38=1.0|39=1|44=4000.0|54=2|55=BTCUSD|59=4|60=20190329-07:45:48.621|150=F|151=0.2679762|479=USD|851=2|10=048|
8=FIX.4.4|9=269|35=8|34=85|49=GEMINIORDUAT|52=20190329-07:45:48.628|56=JOJOORDUAT|6=4029.389280952|11=22|12=3.7792040343120|13=3|14=1.0000000|17=182168730|31=4029.36|32=0.2679762|37=182168721|38=1.0|39=2|44=4000.0|54=2|55=BTCUSD|59=4|60=20190329-07:45:48.621|150=F|151=0|479=USD|851=2|10=091|
8=FIX.4.4|9=188|35=8|34=86|49=GEMINIORDUAT|52=20190329-07:45:48.629|56=JOJOORDUAT|6=0|11=23|14=0|17=182168734|37=182168733|38=1.0|39=0|44=4000.0|54=2|55=BTCUSD|59=4|60=20190329-07:45:48.624|150=0|151=1.0|10=184|
8=FIX.4.4|9=271|35=8|34=87|49=GEMINIORDUAT|52=20190329-07:45:48.629|56=JOJOORDUAT|6=4029.36|11=23|12=10.0368468548880|13=3|14=0.7116938|17=182168735|31=4029.36|32=0.7116938|37=182168733|38=1.0|39=1|44=4000.0|54=2|55=BTCUSD|59=4|60=20190329-07:45:48.624|150=F|151=0.2883062|479=USD|851=2|10=238|
8=FIX.4.4|9=269|35=8|34=88|49=GEMINIORDUAT|52=20190329-07:45:48.630|56=JOJOORDUAT|6=4029.305221822|11=23|12=4.0657214214890|13=3|14=1.0000000|17=182168737|31=4029.17|32=0.2883062|37=182168733|38=1.0|39=2|44=4000.0|54=2|55=BTCUSD|59=4|60=20190329-07:45:48.624|150=F|151=0|479=USD|851=2|10=077|
8=FIX.4.4|9=188|35=8|34=89|49=GEMINIORDUAT|52=20190329-07:45:48.632|56=JOJOORDUAT|6=0|11=24|14=0|17=182168741|37=182168740|38=1.0|39=0|44=4000.0|54=2|55=BTCUSD|59=4|60=20190329-07:45:48.632|150=0|151=1.0|10=177|
8=FIX.4.4|9=270|35=8|34=90|49=GEMINIORDUAT|52=20190329-07:45:48.633|56=JOJOORDUAT|6=4029.17|11=24|12=9.9643118730610|13=3|14=0.7065838|17=182168742|31=4029.17|32=0.7065838|37=182168740|38=1.0|39=1|44=4000.0|54=2|55=BTCUSD|59=4|60=20190329-07:45:48.632|150=F|151=0.2934162|479=USD|851=2|10=163|
8=FIX.4.4|9=267|35=8|34=91|49=GEMINIORDUAT|52=20190329-07:45:48.634|56=JOJOORDUAT|6=4029.149460866|11=24|12=4.137711239970|13=3|14=1.0000000|17=182168744|31=4029.1|32=0.2934162|37=182168740|38=1.0|39=2|44=4000.0|54=2|55=BTCUSD|59=4|60=20190329-07:45:48.632|150=F|151=0|479=USD|851=2|10=240|
8=FIX.4.4|9=188|35=8|34=92|49=GEMINIORDUAT|52=20190329-07:45:48.640|56=JOJOORDUAT|6=0|11=25|14=0|17=182168748|37=182168747|38=1.0|39=0|44=4000.0|54=2|55=BTCUSD|59=4|60=20190329-07:45:48.638|150=0|151=1.0|10=191|
8=FIX.4.4|9=267|35=8|34=93|49=GEMINIORDUAT|52=20190329-07:45:48.641|56=JOJOORDUAT|6=4029.1|11=25|12=9.963997741530|13=3|14=0.7065738|17=182168749|31=4029.1|32=0.7065738|37=182168747|38=1.0|39=1|44=4000.0|54=2|55=BTCUSD|59=4|60=20190329-07:45:48.638|150=F|151=0.2934262|479=USD|851=2|10=047|
8=FIX.4.4|9=259|35=8|34=94|49=GEMINIORDUAT|52=20190329-07:45:48.642|56=JOJOORDUAT|6=4029.1|11=25|12=4.137852258470|13=3|14=1.0000000|17=182168751|31=4029.1|32=0.2934262|37=182168747|38=1.0|39=2|44=4000.0|54=2|55=BTCUSD|59=4|60=20190329-07:45:48.638|150=F|151=0|479=USD|851=2|10=087|
8=FIX.4.4|9=188|35=8|34=95|49=GEMINIORDUAT|52=20190329-07:45:48.657|56=JOJOORDUAT|6=0|11=26|14=0|17=182168755|37=182168754|38=1.0|39=0|44=4000.0|54=2|55=BTCUSD|59=4|60=20190329-07:45:48.645|150=0|151=1.0|10=197|
8=FIX.4.4|9=267|35=8|34=96|49=GEMINIORDUAT|52=20190329-07:45:48.658|56=JOJOORDUAT|6=4029.1|11=26|12=9.991637367530|13=3|14=0.7085338|17=182168756|31=4029.1|32=0.7085338|37=182168754|38=1.0|39=1|44=4000.0|54=2|55=BTCUSD|59=4|60=20190329-07:45:48.645|150=F|151=0.2914662|479=USD|851=2|10=047|
8=FIX.4.4|9=266|35=8|34=97|49=GEMINIORDUAT|52=20190329-07:45:48.658|56=JOJOORDUAT|6=4029.04170676|11=26|12=4.110008606130|13=3|14=1.0000000|17=182168758|31=4028.9|32=0.2914662|37=182168754|38=1.0|39=2|44=4000.0|54=2|55=BTCUSD|59=4|60=20190329-07:45:48.645|150=F|151=0|479=USD|851=2|10=192|
8=FIX.4.4|9=188|35=8|34=98|49=GEMINIORDUAT|52=20190329-07:45:48.670|56=JOJOORDUAT|6=0|11=27|14=0|17=182168762|37=182168761|38=1.0|39=0|44=4000.0|54=2|55=BTCUSD|59=4|60=20190329-07:45:48.668|150=0|151=1.0|10=197|
8=FIX.4.4|9=268|35=8|34=99|49=GEMINIORDUAT|52=20190329-07:45:48.671|56=JOJOORDUAT|6=4028.9|11=27|12=10.131588847870|13=3|14=0.7184938|17=182168763|31=4028.9|32=0.7184938|37=182168761|38=1.0|39=1|44=4000.0|54=2|55=BTCUSD|59=4|60=20190329-07:45:48.668|150=F|151=0.2815062|479=USD|851=2|10=109|
8=FIX.4.4|9=270|35=8|34=100|49=GEMINIORDUAT|52=20190329-07:45:48.672|56=JOJOORDUAT|6=4028.807102954|11=27|12=3.9692360124690|13=3|14=1.0000000|17=182168765|31=4028.57|32=0.2815062|37=182168761|38=1.0|39=2|44=4000.0|54=2|55=BTCUSD|59=4|60=20190329-07:45:48.668|150=F|151=0|479=USD|851=2|10=137|
8=FIX.4.4|9=189|35=8|34=101|49=GEMINIORDUAT|52=20190329-07:45:48.678|56=JOJOORDUAT|6=0|11=28|14=0|17=182168769|37=182168768|38=1.0|39=0|44=4000.0|54=2|55=BTCUSD|59=4|60=20190329-07:45:48.676|150=0|151=1.0|10=253|
8=FIX.4.4|9=272|35=8|34=102|49=GEMINIORDUAT|52=20190329-07:45:48.679|56=JOJOORDUAT|6=4028.57|11=28|12=10.3072909249310|13=3|14=0.7310138|17=182168770|31=4028.57|32=0.7310138|37=182168768|38=1.0|39=1|44=4000.0|54=2|55=BTCUSD|59=4|60=20190329-07:45:48.676|150=F|151=0.2689862|479=USD|851=2|10=016|
8=FIX.4.4|9=270|35=8|34=103|49=GEMINIORDUAT|52=20190329-07:45:48.680|56=JOJOORDUAT|6=4028.564620276|11=28|12=3.7926852460350|13=3|14=1.0000000|17=182168772|31=4028.55|32=0.2689862|37=182168768|38=1.0|39=2|44=4000.0|54=2|55=BTCUSD|59=4|60=20190329-07:45:48.676|150=F|151=0|479=USD|851=2|10=161|
8=FIX.4.4|9=189|35=8|34=104|49=GEMINIORDUAT|52=20190329-07:45:48.684|56=JOJOORDUAT|6=0|11=29|14=0|17=182168776|37=182168775|38=1.0|39=0|44=4000.0|54=2|55=BTCUSD|59=4|60=20190329-07:45:48.682|150=0|151=1.0|10=247|
8=FIX.4.4|9=272|35=8|34=105|49=GEMINIORDUAT|52=20190329-07:45:48.685|56=JOJOORDUAT|6=4028.55|11=29|12=10.8698267614650|13=3|14=0.7709138|17=182168777|31=4028.55|32=0.7709138|37=182168775|38=1.0|39=1|44=4000.0|54=2|55=BTCUSD|59=4|60=20190329-07:45:48.682|150=F|151=0.2290862|479=USD|851=2|10=046|
8=FIX.4.4|9=270|35=8|34=106|49=GEMINIORDUAT|52=20190329-07:45:48.686|56=JOJOORDUAT|6=4028.485855864|11=29|12=3.2298737340590|13=3|14=1.0000000|17=182168779|31=4028.27|32=0.2290862|37=182168775|38=1.0|39=2|44=4000.0|54=2|55=BTCUSD|59=4|60=20190329-07:45:48.682|150=F|151=0|479=USD|851=2|10=177|
8=FIX.4.4|9=189|35=8|34=107|49=GEMINIORDUAT|52=20190329-07:45:48.697|56=JOJOORDUAT|6=0|11=30|14=0|17=182168783|37=182168782|38=1.0|39=0|44=4000.0|54=2|55=BTCUSD|59=4|60=20190329-07:45:48.695|150=0|151=1.0|10=246|
8=FIX.4.4|9=272|35=8|34=108|49=GEMINIORDUAT|52=20190329-07:45:48.697|56=JOJOORDUAT|6=4028.27|11=30|12=11.4606629981410|13=3|14=0.8128738|17=182168784|31=4028.27|32=0.8128738|37=182168782|38=1.0|39=1|44=4000.0|54=2|55=BTCUSD|59=4|60=20190329-07:45:48.695|150=F|151=0.1871262|479=USD|851=2|10=033|
8=FIX.4.4|9=268|35=8|34=109|49=GEMINIORDUAT|52=20190329-07:45:48.698|56=JOJOORDUAT|6=4028.238188546|11=30|12=2.638170661770|13=3|14=1.0000000|17=182168786|31=4028.1|32=0.1871262|37=182168782|38=1.0|39=2|44=4000.0|54=2|55=BTCUSD|59=4|60=20190329-07:45:48.695|150=F|151=0|479=USD|851=2|10=060|
8=FIX.4.4|9=189|35=8|34=110|49=GEMINIORDUAT|52=20190329-07:45:48.706|56=JOJOORDUAT|6=0|11=31|14=0|17=182168790|37=182168789|38=1.0|39=0|44=4000.0|54=2|55=BTCUSD|59=4|60=20190329-07:45:48.704|150=0|151=1.0|10=228|
8=FIX.4.4|9=269|35=8|34=111|49=GEMINIORDUAT|52=20190329-07:45:48.707|56=JOJOORDUAT|6=4028.1|11=31|12=12.152408323230|13=3|14=0.8619738|17=182168791|31=4028.1|32=0.8619738|37=182168789|38=1.0|39=1|44=4000.0|54=2|55=BTCUSD|59=4|60=20190329-07:45:48.704|150=F|151=0.1380262|479=USD|851=2|10=101|
8=FIX.4.4|9=270|35=8|34=112|49=GEMINIORDUAT|52=20190329-07:45:48.707|56=JOJOORDUAT|6=4028.080676332|11=31|12=1.9458740439320|13=3|14=1.0000000|17=182168793|31=4027.96|32=0.1380262|37=182168789|38=1.0|39=2|44=4000.0|54=2|55=BTCUSD|59=4|60=20190329-07:45:48.704|150=F|151=0|479=USD|851=2|10=134|
8=FIX.4.4|9=189|35=8|34=113|49=GEMINIORDUAT|52=20190329-07:45:48.713|56=JOJOORDUAT|6=0|11=32|14=0|17=182168797|37=182168796|38=1.0|39=0|44=4000.0|54=2|55=BTCUSD|59=4|60=20190329-07:45:48.711|150=0|151=1.0|10=233|
8=FIX.4.4|9=272|35=8|34=114|49=GEMINIORDUAT|52=20190329-07:45:48.714|56=JOJOORDUAT|6=4027.96|11=32|12=13.2469667422680|13=3|14=0.9396438|17=182168798|31=4027.96|32=0.9396438|37=182168796|38=1.0|39=1|44=4000.0|54=2|55=BTCUSD|59=4|60=20190329-07:45:48.711|150=F|151=0.0603562|479=USD|851=2|10=044|
8=FIX.4.4|9=270|35=8|34=115|49=GEMINIORDUAT|52=20190329-07:45:48.714|56=JOJOORDUAT|6=4027.952153694|11=32|12=0.8508657956610|13=3|14=1.0000000|17=182168800|31=4027.83|32=0.0603562|37=182168796|38=1.0|39=2|44=4000.0|54=2|55=BTCUSD|59=4|60=20190329-07:45:48.711|150=F|151=0|479=USD|851=2|10=132|
8=FIX.4.4|9=189|35=8|34=116|49=GEMINIORDUAT|52=20190329-07:45:48.717|56=JOJOORDUAT|6=0|11=33|14=0|17=182168804|37=182168803|38=1.0|39=0|44=4000.0|54=2|55=BTCUSD|59=4|60=20190329-07:45:48.714|150=0|151=1.0|10=222|
8=FIX.4.4|9=246|35=8|34=117|49=GEMINIORDUAT|52=20190329-07:45:48.717|56=JOJOORDUAT|6=4027.83|11=33|12=14.0974050|13=3|14=1.0|17=182168805|31=4027.83|32=1.0|37=182168803|38=1.0|39=2|44=4000.0|54=2|55=BTCUSD|59=4|60=20190329-07:45:48.714|150=F|151=0|479=USD|851=2|10=176|
8=FIX.4.4|9=189|35=8|34=118|49=GEMINIORDUAT|52=20190329-07:45:48.723|56=JOJOORDUAT|6=0|11=34|14=0|17=182168809|37=182168808|38=1.0|39=0|44=4000.0|54=2|55=BTCUSD|59=4|60=20190329-07:45:48.721|150=0|151=1.0|10=230|
8=FIX.4.4|9=271|35=8|34=119|49=GEMINIORDUAT|52=20190329-07:45:48.724|56=JOJOORDUAT|6=4027.83|11=34|12=0.3932301955890|13=3|14=0.0278938|17=182168810|31=4027.83|32=0.0278938|37=182168808|38=1.0|39=1|44=4000.0|54=2|55=BTCUSD|59=4|60=20190329-07:45:48.721|150=F|151=0.9721062|479=USD|851=2|10=217|
8=FIX.4.4|9=271|35=8|34=120|49=GEMINIORDUAT|52=20190329-07:45:48.725|56=JOJOORDUAT|6=4027.567531326|11=34|12=13.7032561640520|13=3|14=1.0000000|17=182168812|31=4027.56|32=0.9721062|37=182168808|38=1.0|39=2|44=4000.0|54=2|55=BTCUSD|59=4|60=20190329-07:45:48.721|150=F|151=0|479=USD|851=2|10=157|
8=FIX.4.4|9=189|35=8|34=121|49=GEMINIORDUAT|52=20190329-07:45:48.733|56=JOJOORDUAT|6=0|11=35|14=0|17=182168816|37=182168815|38=1.0|39=0|44=4000.0|54=2|55=BTCUSD|59=4|60=20190329-07:45:48.732|150=0|151=1.0|10=224|
8=FIX.4.4|9=271|35=8|34=122|49=GEMINIORDUAT|52=20190329-07:45:48.744|56=JOJOORDUAT|6=4027.56|11=35|12=2.6594917101480|13=3|14=0.1886638|17=182168817|31=4027.56|32=0.1886638|37=182168815|38=1.0|39=1|44=4000.0|54=2|55=BTCUSD|59=4|60=20190329-07:45:48.732|150=F|151=0.8113362|479=USD|851=2|10=224|
8=FIX.4.4|9=271|35=8|34=123|49=GEMINIORDUAT|52=20190329-07:45:48.745|56=JOJOORDUAT|6=4027.551886638|11=35|12=11.4369398930850|13=3|14=1.0000000|17=182168819|31=4027.55|32=0.8113362|37=182168815|38=1.0|39=2|44=4000.0|54=2|55=BTCUSD|59=4|60=20190329-07:45:48.732|150=F|151=0|479=USD|851=2|10=202|
8=FIX.4.4|9=189|35=8|34=124|49=GEMINIORDUAT|52=20190329-07:45:48.751|56=JOJOORDUAT|6=0|11=36|14=0|17=182168823|37=182168822|38=1.0|39=0|44=4000.0|54=2|55=BTCUSD|59=4|60=20190329-07:45:48.738|150=0|151=1.0|10=230|
8=FIX.4.4|9=271|35=8|34=125|49=GEMINIORDUAT|52=20190329-07:45:48.751|56=JOJOORDUAT|6=4027.55|11=36|12=5.4855363909150|13=3|14=0.3891438|17=182168824|31=4027.55|32=0.3891438|37=182168822|38=1.0|39=1|44=4000.0|54=2|55=BTCUSD|59=4|60=20190329-07:45:48.738|150=F|151=0.6108562|479=USD|851=2|10=228|
8=FIX.4.4|9=270|35=8|34=126|49=GEMINIORDUAT|52=20190329-07:45:48.752|56=JOJOORDUAT|6=4027.482805818|11=36|12=8.6106534294480|13=3|14=1.0000000|17=182168826|31=4027.44|32=0.6108562|37=182168822|38=1.0|39=2|44=4000.0|54=2|55=BTCUSD|59=4|60=20190329-07:45:48.738|150=F|151=0|479=USD|851=2|10=144|
8=FIX.4.4|9=189|35=8|34=127|49=GEMINIORDUAT|52=20190329-07:45:48.759|56=JOJOORDUAT|6=0|11=37|14=0|17=182168830|37=182168829|38=1.0|39=0|44=4000.0|54=2|55=BTCUSD|59=4|60=20190329-07:45:48.758|150=0|151=1.0|10=249|
8=FIX.4.4|9=271|35=8|34=128|49=GEMINIORDUAT|52=20190329-07:45:48.760|56=JOJOORDUAT|6=4027.44|11=37|12=8.6760252245520|13=3|14=0.6154938|17=182168831|31=4027.44|32=0.6154938|37=182168829|38=1.0|39=1|44=4000.0|54=2|55=BTCUSD|59=4|60=20190329-07:45:48.758|150=F|151=0.3845062|479=USD|851=2|10=226|
8=FIX.4.4|9=269|35=8|34=129|49=GEMINIORDUAT|52=20190329-07:45:48.761|56=JOJOORDUAT|6=4027.36309876|11=37|12=5.4197456211080|13=3|14=1.0000000|17=182168833|31=4027.24|32=0.3845062|37=182168829|38=1.0|39=2|44=4000.0|54=2|55=BTCUSD|59=4|60=20190329-07:45:48.758|150=F|151=0|479=USD|851=2|10=104|
8=FIX.4.4|9=189|35=8|34=130|49=GEMINIORDUAT|52=20190329-07:45:48.764|56=JOJOORDUAT|6=0|11=38|14=0|17=182168837|37=182168836|38=1.0|39=0|44=4000.0|54=2|55=BTCUSD|59=4|60=20190329-07:45:48.762|150=0|151=1.0|10=240|
8=FIX.4.4|9=272|35=8|34=131|49=GEMINIORDUAT|52=20190329-07:45:48.765|56=JOJOORDUAT|6=4027.24|11=38|12=12.0342319940920|13=3|14=0.8537738|17=182168838|31=4027.24|32=0.8537738|37=182168836|38=1.0|39=1|44=4000.0|54=2|55=BTCUSD|59=4|60=20190329-07:45:48.762|150=F|151=0.1462262|479=USD|851=2|10=015|
8=FIX.4.4|9=270|35=8|34=132|49=GEMINIORDUAT|52=20190329-07:45:48.765|56=JOJOORDUAT|6=4027.235613214|11=38|12=2.0610926521570|13=3|14=1.0000000|17=182168840|31=4027.21|32=0.1462262|37=182168836|38=1.0|39=2|44=4000.0|54=2|55=BTCUSD|59=4|60=20190329-07:45:48.762|150=F|151=0|479=USD|851=2|10=104|
8=FIX.4.4|9=189|35=8|34=133|49=GEMINIORDUAT|52=20190329-07:45:48.775|56=JOJOORDUAT|6=0|11=39|14=0|17=182168844|37=182168843|38=1.0|39=0|44=4000.0|54=2|55=BTCUSD|59=4|60=20190329-07:45:48.773|150=0|151=1.0|10=244|
8=FIX.4.4|9=246|35=8|34=134|49=GEMINIORDUAT|52=20190329-07:45:48.775|56=JOJOORDUAT|6=4027.21|11=39|12=14.0952350|13=3|14=1.0|17=182168845|31=4027.21|32=1.0|37=182168843|38=1.0|39=2|44=4000.0|54=2|55=BTCUSD|59=4|60=20190329-07:45:48.773|150=F|151=0|479=USD|851=2|10=181|
8=FIX.4.4|9=189|35=8|34=135|49=GEMINIORDUAT|52=20190329-07:45:48.808|56=JOJOORDUAT|6=0|11=40|14=0|17=182168849|37=182168848|38=1.0|39=0|44=4000.0|54=2|55=BTCUSD|59=4|60=20190329-07:45:48.804|150=0|151=1.0|10=240|
8=FIX.4.4|9=271|35=8|34=136|49=GEMINIORDUAT|52=20190329-07:45:48.809|56=JOJOORDUAT|6=4027.21|11=40|12=1.3678551662930|13=3|14=0.0970438|17=182168850|31=4027.21|32=0.0970438|37=182168848|38=1.0|39=1|44=4000.0|54=2|55=BTCUSD|59=4|60=20190329-07:45:48.804|150=F|151=0.9029562|479=USD|851=2|10=210|
8=FIX.4.4|9=271|35=8|34=137|49=GEMINIORDUAT|52=20190329-07:45:48.809|56=JOJOORDUAT|6=4026.243836866|11=40|12=12.7239982627380|13=3|14=1.0000000|17=182168852|31=4026.14|32=0.9029562|37=182168848|38=1.0|39=2|44=4000.0|54=2|55=BTCUSD|59=4|60=20190329-07:45:48.804|150=F|151=0|479=USD|851=2|10=205|
8=FIX.4.4|9=189|35=8|34=138|49=GEMINIORDUAT|52=20190329-07:45:48.822|56=JOJOORDUAT|6=0|11=41|14=0|17=182168856|37=182168855|38=1.0|39=0|44=4000.0|54=2|55=BTCUSD|59=4|60=20190329-07:45:48.818|150=0|151=1.0|10=241|
8=FIX.4.4|9=271|35=8|34=139|49=GEMINIORDUAT|52=20190329-07:45:48.822|56=JOJOORDUAT|6=4026.14|11=41|12=4.8072244462620|13=3|14=0.3411438|17=182168857|31=4026.14|32=0.3411438|37=182168855|38=1.0|39=1|44=4000.0|54=2|55=BTCUSD|59=4|60=20190329-07:45:48.818|150=F|151=0.6588562|479=USD|851=2|10=203|
8=FIX.4.4|9=270|35=8|34=140|49=GEMINIORDUAT|52=20190329-07:45:48.823|56=JOJOORDUAT|6=4026.120234314|11=41|12=9.2841963738370|13=3|14=1.0000000|17=182168859|31=4026.11|32=0.6588562|37=182168855|38=1.0|39=2|44=4000.0|54=2|55=BTCUSD|59=4|60=20190329-07:45:48.818|150=F|151=0|479=USD|851=2|10=136|
8=FIX.4.4|9=189|35=8|34=141|49=GEMINIORDUAT|52=20190329-07:45:48.829|56=JOJOORDUAT|6=0|11=42|14=0|17=182168863|37=182168862|38=1.0|39=0|44=4000.0|54=2|55=BTCUSD|59=4|60=20190329-07:45:48.826|150=0|151=1.0|10=238|
8=FIX.4.4|9=271|35=8|34=142|49=GEMINIORDUAT|52=20190329-07:45:48.830|56=JOJOORDUAT|6=4026.11|11=42|12=8.3468036243130|13=3|14=0.5923338|17=182168864|31=4026.11|32=0.5923338|37=182168862|38=1.0|39=1|44=4000.0|54=2|55=BTCUSD|59=4|60=20190329-07:45:48.826|150=F|151=0.4076662|479=USD|851=2|10=195|
8=FIX.4.4|9=270|35=8|34=143|49=GEMINIORDUAT|52=20190329-07:45:48.830|56=JOJOORDUAT|6=4026.061080056|11=42|12=5.7444101558830|13=3|14=1.0000000|17=182168866|31=4025.99|32=0.4076662|37=182168862|38=1.0|39=2|44=4000.0|54=2|55=BTCUSD|59=4|60=20190329-07:45:48.826|150=F|151=0|479=USD|851=2|10=130|
8=FIX.4.4|9=189|35=8|34=144|49=GEMINIORDUAT|52=20190329-07:45:48.840|56=JOJOORDUAT|6=0|11=43|14=0|17=182168870|37=182168869|38=1.0|39=0|44=4000.0|54=2|55=BTCUSD|59=4|60=20190329-07:45:48.836|150=0|151=1.0|10=241|
8=FIX.4.4|9=272|35=8|34=145|49=GEMINIORDUAT|52=20190329-07:45:48.840|56=JOJOORDUAT|6=4025.99|11=43|12=12.4745030408670|13=3|14=0.8852838|17=182168871|31=4025.99|32=0.8852838|37=182168869|38=1.0|39=1|44=4000.0|54=2|55=BTCUSD|59=4|60=20190329-07:45:48.836|150=F|151=0.1147162|479=USD|851=2|10=038|
8=FIX.4.4|9=269|35=8|34=146|49=GEMINIORDUAT|52=20190329-07:45:48.841|56=JOJOORDUAT|6=4025.93837771|11=43|12=1.6162812811180|13=3|14=1.0000000|17=182168873|31=4025.54|32=0.1147162|37=182168869|38=1.0|39=2|44=4000.0|54=2|55=BTCUSD|59=4|60=20190329-07:45:48.836|150=F|151=0|479=USD|851=2|10=093|
8=FIX.4.4|9=189|35=8|34=147|49=GEMINIORDUAT|52=20190329-07:45:48.849|56=JOJOORDUAT|6=0|11=44|14=0|17=182168877|37=182168876|38=1.0|39=0|44=4000.0|54=2|55=BTCUSD|59=4|60=20190329-07:45:48.846|150=0|151=1.0|10=004|
8=FIX.4.4|9=246|35=8|34=148|49=GEMINIORDUAT|52=20190329-07:45:48.849|56=JOJOORDUAT|6=4025.54|11=44|12=14.0893900|13=3|14=1.0|17=182168878|31=4025.54|32=1.0|37=182168876|38=1.0|39=2|44=4000.0|54=2|55=BTCUSD|59=4|60=20190329-07:45:48.846|150=F|151=0|479=USD|851=2|10=210|
8=FIX.4.4|9=189|35=8|34=149|49=GEMINIORDUAT|52=20190329-07:45:48.860|56=JOJOORDUAT|6=0|11=45|14=0|17=182168882|37=182168881|38=1.0|39=0|44=4000.0|54=2|55=BTCUSD|59=4|60=20190329-07:45:48.857|150=0|151=1.0|10=250|
8=FIX.4.4|9=271|35=8|34=150|49=GEMINIORDUAT|52=20190329-07:45:48.860|56=JOJOORDUAT|6=4025.54|11=45|12=2.5114873071820|13=3|14=0.1782538|17=182168883|31=4025.54|32=0.1782538|37=182168881|38=1.0|39=1|44=4000.0|54=2|55=BTCUSD|59=4|60=20190329-07:45:48.857|150=F|151=0.8217462|479=USD|851=2|10=217|
8=FIX.4.4|9=270|35=8|34=151|49=GEMINIORDUAT|52=20190329-07:45:48.861|56=JOJOORDUAT|6=4025.49891269|11=45|12=11.5777588872330|13=3|14=1.0000000|17=182168885|31=4025.49|32=0.8217462|37=182168881|38=1.0|39=2|44=4000.0|54=2|55=BTCUSD|59=4|60=20190329-07:45:48.857|150=F|151=0|479=USD|851=2|10=174|
8=FIX.4.4|9=189|35=8|34=152|49=GEMINIORDUAT|52=20190329-07:45:48.869|56=JOJOORDUAT|6=0|11=46|14=0|17=182168889|37=182168888|38=1.0|39=0|44=4000.0|54=2|55=BTCUSD|59=4|60=20190329-07:45:48.866|150=0|151=1.0|10=012|
8=FIX.4.4|9=271|35=8|34=153|49=GEMINIORDUAT|52=20190329-07:45:48.870|56=JOJOORDUAT|6=4025.49|11=46|12=6.9788644049670|13=3|14=0.4953338|17=182168890|31=4025.49|32=0.4953338|37=182168888|38=1.0|39=1|44=4000.0|54=2|55=BTCUSD|59=4|60=20190329-07:45:48.866|150=F|151=0.5046662|479=USD|851=2|10=009|
8=FIX.4.4|9=270|35=8|34=154|49=GEMINIORDUAT|52=20190329-07:45:48.870|56=JOJOORDUAT|6=4025.096360364|11=46|12=7.1089728563070|13=3|14=1.0000000|17=182168892|31=4024.71|32=0.5046662|37=182168888|38=1.0|39=2|44=4000.0|54=2|55=BTCUSD|59=4|60=20190329-07:45:48.866|150=F|151=0|479=USD|851=2|10=156|
8=FIX.4.4|9=189|35=8|34=155|49=GEMINIORDUAT|52=20190329-07:45:48.881|56=JOJOORDUAT|6=0|11=47|14=0|17=182168896|37=182168895|38=1.0|39=0|44=4000.0|54=2|55=BTCUSD|59=4|60=20190329-07:45:48.878|150=0|151=1.0|10=009|
8=FIX.4.4|9=272|35=8|34=156|49=GEMINIORDUAT|52=20190329-07:45:48.882|56=JOJOORDUAT|6=4024.71|11=47|12=11.9166563792430|13=3|14=0.8459638|17=182168897|31=4024.71|32=0.8459638|37=182168895|38=1.0|39=1|44=4000.0|54=2|55=BTCUSD|59=4|60=20190329-07:45:48.878|150=F|151=0.1540362|479=USD|851=2|10=054|
8=FIX.4.4|9=269|35=8|34=157|49=GEMINIORDUAT|52=20190329-07:45:48.882|56=JOJOORDUAT|6=4024.67919276|11=47|12=2.1697207954170|13=3|14=1.0000000|17=182168899|31=4024.51|32=0.1540362|37=182168895|38=1.0|39=2|44=4000.0|54=2|55=BTCUSD|59=4|60=20190329-07:45:48.878|150=F|151=0|479=USD|851=2|10=127|
8=FIX.4.4|9=189|35=8|34=158|49=GEMINIORDUAT|52=20190329-07:45:48.891|56=JOJOORDUAT|6=0|11=48|14=0|17=182168903|37=182168902|38=1.0|39=0|44=4000.0|54=2|55=BTCUSD|59=4|60=20190329-07:45:48.889|150=0|151=1.0|10=250|
8=FIX.4.4|9=246|35=8|34=159|49=GEMINIORDUAT|52=20190329-07:45:48.891|56=JOJOORDUAT|6=4024.51|11=48|12=14.0857850|13=3|14=1.0|17=182168904|31=4024.51|32=1.0|37=182168902|38=1.0|39=2|44=4000.0|54=2|55=BTCUSD|59=4|60=20190329-07:45:48.889|150=F|151=0|479=USD|851=2|10=196|
8=FIX.4.4|9=189|35=8|34=160|49=GEMINIORDUAT|52=20190329-07:45:48.904|56=JOJOORDUAT|6=0|11=49|14=0|17=182168909|37=182168908|38=1.0|39=0|44=4000.0|54=2|55=BTCUSD|59=4|60=20190329-07:45:48.901|150=0|151=1.0|10=236|
8=FIX.4.4|9=271|35=8|34=161|49=GEMINIORDUAT|52=20190329-07:45:48.904|56=JOJOORDUAT|6=4024.51|11=49|12=2.9972268582830|13=3|14=0.2127838|17=182168910|31=4024.51|32=0.2127838|37=182168908|38=1.0|39=1|44=4000.0|54=2|55=BTCUSD|59=4|60=20190329-07:45:48.901|150=F|151=0.7872162|479=USD|851=2|10=214|
8=FIX.4.4|9=270|35=8|34=162|49=GEMINIORDUAT|52=20190329-07:45:48.905|56=JOJOORDUAT|6=4024.39191757|11=49|12=11.0881448532120|13=3|14=1.0000000|17=182168912|31=4024.36|32=0.7872162|37=182168908|38=1.0|39=2|44=4000.0|54=2|55=BTCUSD|59=4|60=20190329-07:45:48.901|150=F|151=0|479=USD|851=2|10=127|
8=FIX.4.4|9=189|35=8|34=163|49=GEMINIORDUAT|52=20190329-07:45:48.908|56=JOJOORDUAT|6=0|11=50|14=0|17=182168916|37=182168915|38=1.0|39=0|44=4000.0|54=2|55=BTCUSD|59=4|60=20190329-07:45:48.907|150=0|151=1.0|10=237|
8=FIX.4.4|9=271|35=8|34=164|49=GEMINIORDUAT|52=20190329-07:45:48.909|56=JOJOORDUAT|6=4024.36|11=50|12=8.4010659983880|13=3|14=0.5964438|17=182168917|31=4024.36|32=0.5964438|37=182168915|38=1.0|39=1|44=4000.0|54=2|55=BTCUSD|59=4|60=20190329-07:45:48.907|150=F|151=0.4035562|479=USD|851=2|10=237|
8=FIX.4.4|9=268|35=8|34=165|49=GEMINIORDUAT|52=20190329-07:45:48.909|56=JOJOORDUAT|6=4024.214719768|11=50|12=5.683685520800|13=3|14=1.0000000|17=182168919|31=4024.0|32=0.4035562|37=182168915|38=1.0|39=2|44=4000.0|54=2|55=BTCUSD|59=4|60=20190329-07:45:48.907|150=F|151=0|479=USD|851=2|10=042|
8=FIX.4.4|9=189|35=8|34=166|49=GEMINIORDUAT|52=20190329-07:45:48.921|56=JOJOORDUAT|6=0|11=51|14=0|17=182168923|37=182168922|38=1.0|39=0|44=4000.0|54=2|55=BTCUSD|59=4|60=20190329-07:45:48.920|150=0|151=1.0|10=227|
8=FIX.4.4|9=243|35=8|34=167|49=GEMINIORDUAT|52=20190329-07:45:48.922|56=JOJOORDUAT|6=4024.0|11=51|12=14.084000|13=3|14=1.0|17=182168924|31=4024.0|32=1.0|37=182168922|38=1.0|39=2|44=4000.0|54=2|55=BTCUSD|59=4|60=20190329-07:45:48.920|150=F|151=0|479=USD|851=2|10=250|
8=FIX.4.4|9=189|35=8|34=168|49=GEMINIORDUAT|52=20190329-07:45:48.934|56=JOJOORDUAT|6=0|11=52|14=0|17=182168928|37=182168927|38=1.0|39=0|44=4000.0|54=2|55=BTCUSD|59=4|60=20190329-07:45:48.932|150=0|151=1.0|10=247|
8=FIX.4.4|9=268|35=8|34=169|49=GEMINIORDUAT|52=20190329-07:45:48.935|56=JOJOORDUAT|6=4024.0|11=52|12=0.789180039200|13=3|14=0.0560338|17=182168929|31=4024.0|32=0.0560338|37=182168927|38=1.0|39=1|44=4000.0|54=2|55=BTCUSD|59=4|60=20190329-07:45:48.932|150=F|151=0.9439662|479=USD|851=2|10=055|
8=FIX.4.4|9=271|35=8|34=170|49=GEMINIORDUAT|52=20190329-07:45:48.936|56=JOJOORDUAT|6=4023.981120676|11=52|12=13.2947538831660|13=3|14=1.0000000|17=182168931|31=4023.98|32=0.9439662|37=182168927|38=1.0|39=2|44=4000.0|54=2|55=BTCUSD|59=4|60=20190329-07:45:48.932|150=F|151=0|479=USD|851=2|10=207|
8=FIX.4.4|9=189|35=8|34=171|49=GEMINIORDUAT|52=20190329-07:45:48.945|56=JOJOORDUAT|6=0|11=53|14=0|17=182168935|37=182168934|38=1.0|39=0|44=4000.0|54=2|55=BTCUSD|59=4|60=20190329-07:45:48.943|150=0|151=1.0|10=242|
8=FIX.4.4|9=271|35=8|34=172|49=GEMINIORDUAT|52=20190329-07:45:48.946|56=JOJOORDUAT|6=4023.98|11=53|12=7.4724234197340|13=3|14=0.5305638|17=182168936|31=4023.98|32=0.5305638|37=182168934|38=1.0|39=1|44=4000.0|54=2|55=BTCUSD|59=4|60=20190329-07:45:48.943|150=F|151=0.4694362|479=USD|851=2|10=235|
8=FIX.4.4|9=268|35=8|34=173|49=GEMINIORDUAT|52=20190329-07:45:48.946|56=JOJOORDUAT|6=4023.942445104|11=53|12=6.611375138130|13=3|14=1.0000000|17=182168938|31=4023.9|32=0.4694362|37=182168934|38=1.0|39=2|44=4000.0|54=2|55=BTCUSD|59=4|60=20190329-07:45:48.943|150=F|151=0|479=USD|851=2|10=040|
8=FIX.4.4|9=189|35=8|34=174|49=GEMINIORDUAT|52=20190329-07:45:48.954|56=JOJOORDUAT|6=0|11=54|14=0|17=182168942|37=182168941|38=1.0|39=0|44=4000.0|54=2|55=BTCUSD|59=4|60=20190329-07:45:48.952|150=0|151=1.0|10=242|
8=FIX.4.4|9=243|35=8|34=175|49=GEMINIORDUAT|52=20190329-07:45:48.954|56=JOJOORDUAT|6=4023.9|11=54|12=14.083650|13=3|14=1.0|17=182168943|31=4023.9|32=1.0|37=182168941|38=1.0|39=2|44=4000.0|54=2|55=BTCUSD|59=4|60=20190329-07:45:48.952|150=F|151=0|479=USD|851=2|10=034|
8=FIX.4.4|9=189|35=8|34=176|49=GEMINIORDUAT|52=20190329-07:45:48.981|56=JOJOORDUAT|6=0|11=55|14=0|17=182168947|37=182168946|38=1.0|39=0|44=4000.0|54=2|55=BTCUSD|59=4|60=20190329-07:45:48.980|150=0|151=1.0|10=000|
8=FIX.4.4|9=268|35=8|34=177|49=GEMINIORDUAT|52=20190329-07:45:48.982|56=JOJOORDUAT|6=4023.9|11=55|12=0.120750398370|13=3|14=0.0085738|17=182168948|31=4023.9|32=0.0085738|37=182168946|38=1.0|39=1|44=4000.0|54=2|55=BTCUSD|59=4|60=20190329-07:45:48.980|150=F|151=0.9914262|479=USD|851=2|10=084|
8=FIX.4.4|9=268|35=8|34=178|49=GEMINIORDUAT|52=20190329-07:45:48.982|56=JOJOORDUAT|6=4022.80943118|11=55|12=13.959082610760|13=3|14=1.0000000|17=182168950|31=4022.8|32=0.9914262|37=182168946|38=1.0|39=2|44=4000.0|54=2|55=BTCUSD|59=4|60=20190329-07:45:48.980|150=F|151=0|479=USD|851=2|10=054|
8=FIX.4.4|9=189|35=8|34=179|49=GEMINIORDUAT|52=20190329-07:45:48.986|56=JOJOORDUAT|6=0|11=56|14=0|17=182168954|37=182168953|38=1.0|39=0|44=4000.0|54=2|55=BTCUSD|59=4|60=20190329-07:45:48.985|150=0|151=1.0|10=010|
8=FIX.4.4|9=268|35=8|34=180|49=GEMINIORDUAT|52=20190329-07:45:48.987|56=JOJOORDUAT|6=4022.8|11=56|12=7.202293597240|13=3|14=0.5115338|17=182168955|31=4022.8|32=0.5115338|37=182168953|38=1.0|39=1|44=4000.0|54=2|55=BTCUSD|59=4|60=20190329-07:45:48.985|150=F|151=0.4884662|479=USD|851=2|10=083|
8=FIX.4.4|9=267|35=8|34=181|49=GEMINIORDUAT|52=20190329-07:45:48.987|56=JOJOORDUAT|6=4022.75115338|11=56|12=6.877335439590|13=3|14=1.0000000|17=182168957|31=4022.7|32=0.4884662|37=182168953|38=1.0|39=2|44=4000.0|54=2|55=BTCUSD|59=4|60=20190329-07:45:48.985|150=F|151=0|479=USD|851=2|10=030|
8=FIX.4.4|9=189|35=8|34=182|49=GEMINIORDUAT|52=20190329-07:45:48.989|56=JOJOORDUAT|6=0|11=57|14=0|17=182168961|37=182168960|38=1.0|39=0|44=4000.0|54=2|55=BTCUSD|59=4|60=20190329-07:45:48.988|150=0|151=1.0|10=007|
8=FIX.4.4|9=243|35=8|34=183|49=GEMINIORDUAT|52=20190329-07:45:48.990|56=JOJOORDUAT|6=4022.7|11=57|12=14.079450|13=3|14=1.0|17=182168962|31=4022.7|32=1.0|37=182168960|38=1.0|39=2|44=4000.0|54=2|55=BTCUSD|59=4|60=20190329-07:45:48.988|150=F|151=0|479=USD|851=2|10=044|
8=FIX.4.4|9=189|35=8|34=184|49=GEMINIORDUAT|52=20190329-07:45:48.994|56=JOJOORDUAT|6=0|11=58|14=0|17=182168966|37=182168965|38=1.0|39=0|44=4000.0|54=2|55=BTCUSD|59=4|60=20190329-07:45:48.992|150=0|151=1.0|10=011|
8=FIX.4.4|9=268|35=8|34=185|49=GEMINIORDUAT|52=20190329-07:45:48.995|56=JOJOORDUAT|6=4022.7|11=58|12=0.387379171410|13=3|14=0.0275138|17=182168967|31=4022.7|32=0.0275138|37=182168965|38=1.0|39=1|44=4000.0|54=2|55=BTCUSD|59=4|60=20190329-07:45:48.992|150=F|151=0.9724862|479=USD|851=2|10=090|
8=FIX.4.4|9=271|35=8|34=186|49=GEMINIORDUAT|52=20190329-07:45:48.995|56=JOJOORDUAT|6=4022.631925966|11=58|12=13.6918325694710|13=3|14=1.0000000|17=182168969|31=4022.63|32=0.9724862|37=182168965|38=1.0|39=2|44=4000.0|54=2|55=BTCUSD|59=4|60=20190329-07:45:48.992|150=F|151=0|479=USD|851=2|10=239|
8=FIX.4.4|9=189|35=8|34=187|49=GEMINIORDUAT|52=20190329-07:45:48.997|56=JOJOORDUAT|6=0|11=59|14=0|17=182168973|37=182168972|38=1.0|39=0|44=4000.0|54=2|55=BTCUSD|59=4|60=20190329-07:45:48.996|150=0|151=1.0|10=018|
8=FIX.4.4|9=271|35=8|34=188|49=GEMINIORDUAT|52=20190329-07:45:48.998|56=JOJOORDUAT|6=4022.63|11=59|12=7.9990130296790|13=3|14=0.5681438|17=182168974|31=4022.63|32=0.5681438|37=182168972|38=1.0|39=1|44=4000.0|54=2|55=BTCUSD|59=4|60=20190329-07:45:48.996|150=F|151=0.4318562|479=USD|851=2|10=012|
8=FIX.4.4|9=269|35=8|34=189|49=GEMINIORDUAT|52=20190329-07:45:48.998|56=JOJOORDUAT|6=4022.50044314|11=59|12=6.0797385213110|13=3|14=1.0000000|17=182168976|31=4022.33|32=0.4318562|37=182168972|38=1.0|39=2|44=4000.0|54=2|55=BTCUSD|59=4|60=20190329-07:45:48.996|150=F|151=0|479=USD|851=2|10=107|
8=FIX.4.4|9=189|35=8|34=190|49=GEMINIORDUAT|52=20190329-07:45:49.002|56=JOJOORDUAT|6=0|11=60|14=0|17=182168980|37=182168979|38=1.0|39=0|44=4000.0|54=2|55=BTCUSD|59=4|60=20190329-07:45:49.000|150=0|151=1.0|10=220|
8=FIX.4.4|9=246|35=8|34=191|49=GEMINIORDUAT|52=20190329-07:45:49.002|56=JOJOORDUAT|6=4022.33|11=60|12=14.0781550|13=3|14=1.0|17=182168981|31=4022.33|32=1.0|37=182168979|38=1.0|39=2|44=4000.0|54=2|55=BTCUSD|59=4|60=20190329-07:45:49.000|150=F|151=0|479=USD|851=2|10=155|
8=FIX.4.4|9=189|35=8|34=192|49=GEMINIORDUAT|52=20190329-07:45:49.006|56=JOJOORDUAT|6=0|11=61|14=0|17=182168985|37=182168984|38=1.0|39=0|44=4000.0|54=2|55=BTCUSD|59=4|60=20190329-07:45:49.004|150=0|151=1.0|10=232|
8=FIX.4.4|9=271|35=8|34=193|49=GEMINIORDUAT|52=20190329-07:45:49.006|56=JOJOORDUAT|6=4022.33|11=61|12=1.6816891117390|13=3|14=0.1194538|17=182168986|31=4022.33|32=0.1194538|37=182168984|38=1.0|39=1|44=4000.0|54=2|55=BTCUSD|59=4|60=20190329-07:45:49.004|150=F|151=0.8805462|479=USD|851=2|10=205|
8=FIX.4.4|9=271|35=8|34=194|49=GEMINIORDUAT|52=20190329-07:45:49.007|56=JOJOORDUAT|6=4022.277167228|11=61|12=12.3962809735590|13=3|14=1.0000000|17=182168988|31=4022.27|32=0.8805462|37=182168984|38=1.0|39=2|44=4000.0|54=2|55=BTCUSD|59=4|60=20190329-07:45:49.004|150=F|151=0|479=USD|851=2|10=198|
8=FIX.4.4|9=189|35=8|34=195|49=GEMINIORDUAT|52=20190329-07:45:49.010|56=JOJOORDUAT|6=0|11=62|14=0|17=182168992|37=182168991|38=1.0|39=0|44=4000.0|54=2|55=BTCUSD|59=4|60=20190329-07:45:49.008|150=0|151=1.0|10=231|
8=FIX.4.4|9=271|35=8|34=196|49=GEMINIORDUAT|52=20190329-07:45:49.011|56=JOJOORDUAT|6=4022.27|11=62|12=9.6997576011910|13=3|14=0.6890038|17=182168993|31=4022.27|32=0.6890038|37=182168991|38=1.0|39=1|44=4000.0|54=2|55=BTCUSD|59=4|60=20190329-07:45:49.008|150=F|151=0.3109962|479=USD|851=2|10=223|
8=FIX.4.4|9=270|35=8|34=197|49=GEMINIORDUAT|52=20190329-07:45:49.011|56=JOJOORDUAT|6=4022.260670114|11=62|12=4.3781547442080|13=3|14=1.0000000|17=182168995|31=4022.24|32=0.3109962|37=182168991|38=1.0|39=2|44=4000.0|54=2|55=BTCUSD|59=4|60=20190329-07:45:49.008|150=F|151=0|479=USD|851=2|10=115|
8=FIX.4.4|9=189|35=8|34=198|49=GEMINIORDUAT|52=20190329-07:45:49.016|56=JOJOORDUAT|6=0|11=63|14=0|17=182168999|37=182168998|38=1.0|39=0|44=4000.0|54=2|55=BTCUSD|59=4|60=20190329-07:45:49.014|150=0|151=1.0|10=252|
8=FIX.4.4|9=246|35=8|34=199|49=GEMINIORDUAT|52=20190329-07:45:49.017|56=JOJOORDUAT|6=4022.24|11=63|12=14.0778400|13=3|14=1.0|17=182169000|31=4022.24|32=1.0|37=182168998|38=1.0|39=2|44=4000.0|54=2|55=BTCUSD|59=4|60=20190329-07:45:49.014|150=F|151=0|479=USD|851=2|10=161|
8=FIX.4.4|9=189|35=8|34=200|49=GEMINIORDUAT|52=20190329-07:45:49.021|56=JOJOORDUAT|6=0|11=64|14=0|17=182169004|37=182169003|38=1.0|39=0|44=4000.0|54=2|55=BTCUSD|59=4|60=20190329-07:45:49.019|150=0|151=1.0|10=194|
8=FIX.4.4|9=271|35=8|34=201|49=GEMINIORDUAT|52=20190329-07:45:49.022|56=JOJOORDUAT|6=4022.24|11=64|12=3.6821125477920|13=3|14=0.2615538|17=182169005|31=4022.24|32=0.2615538|37=182169003|38=1.0|39=1|44=4000.0|54=2|55=BTCUSD|59=4|60=20190329-07:45:49.019|150=F|151=0.7384462|479=USD|851=2|10=163|
8=FIX.4.4|9=271|35=8|34=202|49=GEMINIORDUAT|52=20190329-07:45:49.022|56=JOJOORDUAT|6=4022.225231076|11=64|12=10.3956757609740|13=3|14=1.0000000|17=182169007|31=4022.22|32=0.7384462|37=182169003|38=1.0|39=2|44=4000.0|54=2|55=BTCUSD|59=4|60=20190329-07:45:49.019|150=F|151=0|479=USD|851=2|10=142|
8=FIX.4.4|9=189|35=8|34=203|49=GEMINIORDUAT|52=20190329-07:45:49.027|56=JOJOORDUAT|6=0|11=65|14=0|17=182169011|37=182169010|38=1.0|39=0|44=4000.0|54=2|55=BTCUSD|59=4|60=20190329-07:45:49.025|150=0|151=1.0|10=197|
8=FIX.4.4|9=272|35=8|34=204|49=GEMINIORDUAT|52=20190329-07:45:49.027|56=JOJOORDUAT|6=4022.22|11=65|12=12.3021943654260|13=3|14=0.8738738|17=182169012|31=4022.22|32=0.8738738|37=182169010|38=1.0|39=1|44=4000.0|54=2|55=BTCUSD|59=4|60=20190329-07:45:49.025|150=F|151=0.1261262|479=USD|851=2|10=215|
8=FIX.4.4|9=270|35=8|34=205|49=GEMINIORDUAT|52=20190329-07:45:49.028|56=JOJOORDUAT|6=4022.216216214|11=65|12=1.7755623913230|13=3|14=1.0000000|17=182169014|31=4022.19|32=0.1261262|37=182169010|38=1.0|39=2|44=4000.0|54=2|55=BTCUSD|59=4|60=20190329-07:45:49.025|150=F|151=0|479=USD|851=2|10=070|
8=FIX.4.4|9=189|35=8|34=206|49=GEMINIORDUAT|52=20190329-07:45:49.035|56=JOJOORDUAT|6=0|11=66|14=0|17=182169018|37=182169017|38=1.0|39=0|44=4000.0|54=2|55=BTCUSD|59=4|60=20190329-07:45:49.032|150=0|151=1.0|10=212|
8=FIX.4.4|9=246|35=8|34=207|49=GEMINIORDUAT|52=20190329-07:45:49.035|56=JOJOORDUAT|6=4022.19|11=66|12=14.0776650|13=3|14=1.0|17=182169019|31=4022.19|32=1.0|37=182169017|38=1.0|39=2|44=4000.0|54=2|55=BTCUSD|59=4|60=20190329-07:45:49.032|150=F|151=0|479=USD|851=2|10=160|
8=FIX.4.4|9=189|35=8|34=208|49=GEMINIORDUAT|52=20190329-07:45:49.040|56=JOJOORDUAT|6=0|11=67|14=0|17=182169023|37=182169022|38=1.0|39=0|44=4000.0|54=2|55=BTCUSD|59=4|60=20190329-07:45:49.038|150=0|151=1.0|10=209|
8=FIX.4.4|9=271|35=8|34=209|49=GEMINIORDUAT|52=20190329-07:45:49.040|56=JOJOORDUAT|6=4022.19|11=67|12=7.3043907570270|13=3|14=0.5188638|17=182169024|31=4022.19|32=0.5188638|37=182169022|38=1.0|39=1|44=4000.0|54=2|55=BTCUSD|59=4|60=20190329-07:45:49.038|150=F|151=0.4811362|479=USD|851=2|10=191|
8=FIX.4.4|9=270|35=8|34=210|49=GEMINIORDUAT|52=20190329-07:45:49.041|56=JOJOORDUAT|6=4022.074527312|11=67|12=6.7728700885650|13=3|14=1.0000000|17=182169026|31=4021.95|32=0.4811362|37=182169022|38=1.0|39=2|44=4000.0|54=2|55=BTCUSD|59=4|60=20190329-07:45:49.038|150=F|151=0|479=USD|851=2|10=102|
8=FIX.4.4|9=189|35=8|34=211|49=GEMINIORDUAT|52=20190329-07:45:49.051|56=JOJOORDUAT|6=0|11=68|14=0|17=182169030|37=182169029|38=1.0|39=0|44=4000.0|54=2|55=BTCUSD|59=4|60=20190329-07:45:49.049|150=0|151=1.0|10=213|
8=FIX.4.4|9=246|35=8|34=212|49=GEMINIORDUAT|52=20190329-07:45:49.051|56=JOJOORDUAT|6=4021.95|11=68|12=14.0768250|13=3|14=1.0|17=182169031|31=4021.95|32=1.0|37=182169029|38=1.0|39=2|44=4000.0|54=2|55=BTCUSD|59=4|60=20190329-07:45:49.049|150=F|151=0|479=USD|851=2|10=164|
8=FIX.4.4|9=189|35=8|34=213|49=GEMINIORDUAT|52=20190329-07:45:49.055|56=JOJOORDUAT|6=0|11=69|14=0|17=182169035|37=182169034|38=1.0|39=0|44=4000.0|54=2|55=BTCUSD|59=4|60=20190329-07:45:49.053|150=0|151=1.0|10=216|
8=FIX.4.4|9=271|35=8|34=214|49=GEMINIORDUAT|52=20190329-07:45:49.055|56=JOJOORDUAT|6=4021.95|11=69|12=2.3310349436850|13=3|14=0.1655938|17=182169036|31=4021.95|32=0.1655938|37=182169034|38=1.0|39=1|44=4000.0|54=2|55=BTCUSD|59=4|60=20190329-07:45:49.053|150=F|151=0.8344062|479=USD|851=2|10=199|
8=FIX.4.4|9=271|35=8|34=215|49=GEMINIORDUAT|52=20190329-07:45:49.056|56=JOJOORDUAT|6=4021.766430636|11=69|12=11.7451475635410|13=3|14=1.0000000|17=182169038|31=4021.73|32=0.8344062|37=182169034|38=1.0|39=2|44=4000.0|54=2|55=BTCUSD|59=4|60=20190329-07:45:49.053|150=F|151=0|479=USD|851=2|10=159|
8=FIX.4.4|9=189|35=8|34=216|49=GEMINIORDUAT|52=20190329-07:45:49.073|56=JOJOORDUAT|6=0|11=70|14=0|17=182169042|37=182169041|38=1.0|39=0|44=4000.0|54=2|55=BTCUSD|59=4|60=20190329-07:45:49.071|150=0|151=1.0|10=207|
8=FIX.4.4|9=272|35=8|34=217|49=GEMINIORDUAT|52=20190329-07:45:49.074|56=JOJOORDUAT|6=4021.73|11=70|12=11.7445507388090|13=3|14=0.8343638|17=182169043|31=4021.73|32=0.8343638|37=182169041|38=1.0|39=1|44=4000.0|54=2|55=BTCUSD|59=4|60=20190329-07:45:49.071|150=F|151=0.1656362|479=USD|851=2|10=241|
8=FIX.4.4|9=269|35=8|34=218|49=GEMINIORDUAT|52=20190329-07:45:49.074|56=JOJOORDUAT|6=4021.70515457|11=70|12=2.3314173021860|13=3|14=1.0000000|17=182169045|31=4021.58|32=0.1656362|37=182169041|38=1.0|39=2|44=4000.0|54=2|55=BTCUSD|59=4|60=20190329-07:45:49.071|150=F|151=0|479=USD|851=2|10=046|
8=FIX.4.4|9=189|35=8|34=219|49=GEMINIORDUAT|52=20190329-07:45:49.075|56=JOJOORDUAT|6=0|11=71|14=0|17=182169049|37=182169048|38=1.0|39=0|44=4000.0|54=2|55=BTCUSD|59=4|60=20190329-07:45:49.072|150=0|151=1.0|10=228|
8=FIX.4.4|9=246|35=8|34=220|49=GEMINIORDUAT|52=20190329-07:45:49.075|56=JOJOORDUAT|6=4021.58|11=71|12=14.0755300|13=3|14=1.0|17=182169050|31=4021.58|32=1.0|37=182169048|38=1.0|39=2|44=4000.0|54=2|55=BTCUSD|59=4|60=20190329-07:45:49.072|150=F|151=0|479=USD|851=2|10=151|
8=FIX.4.4|9=189|35=8|34=221|49=GEMINIORDUAT|52=20190329-07:45:49.078|56=JOJOORDUAT|6=0|11=72|14=0|17=182169054|37=182169053|38=1.0|39=0|44=4000.0|54=2|55=BTCUSD|59=4|60=20190329-07:45:49.076|150=0|151=1.0|10=221|
8=FIX.4.4|9=271|35=8|34=222|49=GEMINIORDUAT|52=20190329-07:45:49.078|56=JOJOORDUAT|6=4021.58|11=72|12=7.3902697582140|13=3|14=0.5250438|17=182169055|31=4021.58|32=0.5250438|37=182169053|38=1.0|39=1|44=4000.0|54=2|55=BTCUSD|59=4|60=20190329-07:45:49.076|150=F|151=0.4749562|479=USD|851=2|10=204|
8=FIX.4.4|9=270|35=8|34=223|49=GEMINIORDUAT|52=20190329-07:45:49.079|56=JOJOORDUAT|6=4021.190535916|11=72|12=6.6838971174920|13=3|14=1.0000000|17=182169057|31=4020.76|32=0.4749562|37=182169053|38=1.0|39=2|44=4000.0|54=2|55=BTCUSD|59=4|60=20190329-07:45:49.076|150=F|151=0|479=USD|851=2|10=142|
8=FIX.4.4|9=189|35=8|34=224|49=GEMINIORDUAT|52=20190329-07:45:49.082|56=JOJOORDUAT|6=0|11=73|14=0|17=182169061|37=182169060|38=1.0|39=0|44=4000.0|54=2|55=BTCUSD|59=4|60=20190329-07:45:49.081|150=0|151=1.0|10=212|
8=FIX.4.4|9=246|35=8|34=225|49=GEMINIORDUAT|52=20190329-07:45:49.083|56=JOJOORDUAT|6=4020.76|11=73|12=14.0726600|13=3|14=1.0|17=182169062|31=4020.76|32=1.0|37=182169060|38=1.0|39=2|44=4000.0|54=2|55=BTCUSD|59=4|60=20190329-07:45:49.081|150=F|151=0|479=USD|851=2|10=153|
8=FIX.4.4|9=189|35=8|34=226|49=GEMINIORDUAT|52=20190329-07:45:49.087|56=JOJOORDUAT|6=0|11=74|14=0|17=182169066|37=182169065|38=1.0|39=0|44=4000.0|54=2|55=BTCUSD|59=4|60=20190329-07:45:49.085|150=0|151=1.0|10=234|
8=FIX.4.4|9=271|35=8|34=227|49=GEMINIORDUAT|52=20190329-07:45:49.088|56=JOJOORDUAT|6=4020.76|11=74|12=3.4157695113080|13=3|14=0.2427238|17=182169067|31=4020.76|32=0.2427238|37=182169065|38=1.0|39=1|44=4000.0|54=2|55=BTCUSD|59=4|60=20190329-07:45:49.085|150=F|151=0.7572762|479=USD|851=2|10=207|
8=FIX.4.4|9=269|35=8|34=228|49=GEMINIORDUAT|52=20190329-07:45:49.088|56=JOJOORDUAT|6=4020.638835808|11=74|12=10.656466414020|13=3|14=1.0000000|17=182169069|31=4020.6|32=0.7572762|37=182169065|38=1.0|39=2|44=4000.0|54=2|55=BTCUSD|59=4|60=20190329-07:45:49.085|150=F|151=0|479=USD|851=2|10=090|
8=FIX.4.4|9=189|35=8|34=229|49=GEMINIORDUAT|52=20190329-07:45:49.092|56=JOJOORDUAT|6=0|11=75|14=0|17=182169073|37=182169072|38=1.0|39=0|44=4000.0|54=2|55=BTCUSD|59=4|60=20190329-07:45:49.090|150=0|151=1.0|10=226|
8=FIX.4.4|9=269|35=8|34=230|49=GEMINIORDUAT|52=20190329-07:45:49.093|56=JOJOORDUAT|6=4020.6|11=75|12=13.649005426980|13=3|14=0.9699338|17=182169074|31=4020.6|32=0.9699338|37=182169072|38=1.0|39=1|44=4000.0|54=2|55=BTCUSD|59=4|60=20190329-07:45:49.090|150=F|151=0.0300662|479=USD|851=2|10=110|
8=FIX.4.4|9=270|35=8|34=231|49=GEMINIORDUAT|52=20190329-07:45:49.093|56=JOJOORDUAT|6=4020.594287422|11=75|12=0.4230745789970|13=3|14=1.0000000|17=182169076|31=4020.41|32=0.0300662|37=182169072|38=1.0|39=2|44=4000.0|54=2|55=BTCUSD|59=4|60=20190329-07:45:49.090|150=F|151=0|479=USD|851=2|10=107|
8=FIX.4.4|9=189|35=8|34=232|49=GEMINIORDUAT|52=20190329-07:45:49.099|56=JOJOORDUAT|6=0|11=76|14=0|17=182169080|37=182169079|38=1.0|39=0|44=4000.0|54=2|55=BTCUSD|59=4|60=20190329-07:45:49.097|150=0|151=1.0|10=240|
8=FIX.4.4|9=246|35=8|34=233|49=GEMINIORDUAT|52=20190329-07:45:49.099|56=JOJOORDUAT|6=4020.41|11=76|12=14.0714350|13=3|14=1.0|17=182169081|31=4020.41|32=1.0|37=182169079|38=1.0|39=2|44=4000.0|54=2|55=BTCUSD|59=4|60=20190329-07:45:49.097|150=F|151=0|479=USD|851=2|10=163|
8=FIX.4.4|9=189|35=8|34=234|49=GEMINIORDUAT|52=20190329-07:45:49.106|56=JOJOORDUAT|6=0|11=77|14=0|17=182169085|37=182169084|38=1.0|39=0|44=4000.0|54=2|55=BTCUSD|59=4|60=20190329-07:45:49.104|150=0|151=1.0|10=222|
8=FIX.4.4|9=272|35=8|34=235|49=GEMINIORDUAT|52=20190329-07:45:49.107|56=JOJOORDUAT|6=4020.41|11=77|12=10.1668059733030|13=3|14=0.7225138|17=182169086|31=4020.41|32=0.7225138|37=182169084|38=1.0|39=1|44=4000.0|54=2|55=BTCUSD|59=4|60=20190329-07:45:49.104|150=F|151=0.2774862|479=USD|851=2|10=227|
8=FIX.4.4|9=268|35=8|34=236|49=GEMINIORDUAT|52=20190329-07:45:49.107|56=JOJOORDUAT|6=4020.407225138|11=77|12=3.904619314680|13=3|14=1.0000000|17=182169088|31=4020.4|32=0.2774862|37=182169084|38=1.0|39=2|44=4000.0|54=2|55=BTCUSD|59=4|60=20190329-07:45:49.104|150=F|151=0|479=USD|851=2|10=019|
8=FIX.4.4|9=189|35=8|34=237|49=GEMINIORDUAT|52=20190329-07:45:49.111|56=JOJOORDUAT|6=0|11=78|14=0|17=182169092|37=182169091|38=1.0|39=0|44=4000.0|54=2|55=BTCUSD|59=4|60=20190329-07:45:49.110|150=0|151=1.0|10=215|
8=FIX.4.4|9=243|35=8|34=238|49=GEMINIORDUAT|52=20190329-07:45:49.112|56=JOJOORDUAT|6=4020.4|11=78|12=14.071400|13=3|14=1.0|17=182169093|31=4020.4|32=1.0|37=182169091|38=1.0|39=2|44=4000.0|54=2|55=BTCUSD|59=4|60=20190329-07:45:49.110|150=F|151=0|479=USD|851=2|10=238|
8=FIX.4.4|9=189|35=8|34=239|49=GEMINIORDUAT|52=20190329-07:45:49.118|56=JOJOORDUAT|6=0|11=79|14=0|17=182169097|37=182169096|38=1.0|39=0|44=4000.0|54=2|55=BTCUSD|59=4|60=20190329-07:45:49.116|150=0|151=1.0|10=241|
8=FIX.4.4|9=268|35=8|34=240|49=GEMINIORDUAT|52=20190329-07:45:49.119|56=JOJOORDUAT|6=4020.4|11=79|12=6.944852227320|13=3|14=0.4935438|17=182169098|31=4020.4|32=0.4935438|37=182169096|38=1.0|39=1|44=4000.0|54=2|55=BTCUSD|59=4|60=20190329-07:45:49.116|150=F|151=0.5064562|479=USD|851=2|10=058|
8=FIX.4.4|9=270|35=8|34=241|49=GEMINIORDUAT|52=20190329-07:45:49.119|56=JOJOORDUAT|6=4020.091061718|11=79|12=7.1254664886930|13=3|14=1.0000000|17=182169100|31=4019.79|32=0.5064562|37=182169096|38=1.0|39=2|44=4000.0|54=2|55=BTCUSD|59=4|60=20190329-07:45:49.116|150=F|151=0|479=USD|851=2|10=128|
8=FIX.4.4|9=189|35=8|34=242|49=GEMINIORDUAT|52=20190329-07:45:49.125|56=JOJOORDUAT|6=0|11=80|14=0|17=182169104|37=182169103|38=1.0|39=0|44=4000.0|54=2|55=BTCUSD|59=4|60=20190329-07:45:49.123|150=0|151=1.0|10=201|
8=FIX.4.4|9=246|35=8|34=243|49=GEMINIORDUAT|52=20190329-07:45:49.126|56=JOJOORDUAT|6=4019.79|11=80|12=14.0692650|13=3|14=1.0|17=182169105|31=4019.79|32=1.0|37=182169103|38=1.0|39=2|44=4000.0|54=2|55=BTCUSD|59=4|60=20190329-07:45:49.123|150=F|151=0|479=USD|851=2|10=171|
8=FIX.4.4|9=189|35=8|34=244|49=GEMINIORDUAT|52=20190329-07:45:49.133|56=JOJOORDUAT|6=0|11=81|14=0|17=182169109|37=182169108|38=1.0|39=0|44=4000.0|54=2|55=BTCUSD|59=4|60=20190329-07:45:49.129|150=0|151=1.0|10=219|
8=FIX.4.4|9=271|35=8|34=245|49=GEMINIORDUAT|52=20190329-07:45:49.134|56=JOJOORDUAT|6=4019.79|11=81|12=3.9723697433070|13=3|14=0.2823438|17=182169110|31=4019.79|32=0.2823438|37=182169108|38=1.0|39=1|44=4000.0|54=2|55=BTCUSD|59=4|60=20190329-07:45:49.129|150=F|151=0.7176562|479=USD|851=2|10=217|
8=FIX.4.4|9=270|35=8|34=246|49=GEMINIORDUAT|52=20190329-07:45:49.134|56=JOJOORDUAT|6=4019.61058595|11=81|12=10.0962673075180|13=3|14=1.0000000|17=182169112|31=4019.54|32=0.7176562|37=182169108|38=1.0|39=2|44=4000.0|54=2|55=BTCUSD|59=4|60=20190329-07:45:49.129|150=F|151=0|479=USD|851=2|10=123|
8=FIX.4.4|9=189|35=8|34=247|49=GEMINIORDUAT|52=20190329-07:45:49.142|56=JOJOORDUAT|6=0|11=82|14=0|17=182169116|37=182169115|38=1.0|39=0|44=4000.0|54=2|55=BTCUSD|59=4|60=20190329-07:45:49.137|150=0|151=1.0|10=218|
8=FIX.4.4|9=246|35=8|34=248|49=GEMINIORDUAT|52=20190329-07:45:49.142|56=JOJOORDUAT|6=4019.54|11=82|12=14.0683900|13=3|14=1.0|17=182169117|31=4019.54|32=1.0|37=182169115|38=1.0|39=2|44=4000.0|54=2|55=BTCUSD|59=4|60=20190329-07:45:49.137|150=F|151=0|479=USD|851=2|10=171|
8=FIX.4.4|9=189|35=8|34=249|49=GEMINIORDUAT|52=20190329-07:45:49.143|56=JOJOORDUAT|6=0|11=83|14=0|17=182169121|37=182169120|38=1.0|39=0|44=4000.0|54=2|55=BTCUSD|59=4|60=20190329-07:45:49.140|150=0|151=1.0|10=208|
8=FIX.4.4|9=271|35=8|34=250|49=GEMINIORDUAT|52=20190329-07:45:49.143|56=JOJOORDUAT|6=4019.54|11=83|12=1.9813048235820|13=3|14=0.1408338|17=182169122|31=4019.54|32=0.1408338|37=182169120|38=1.0|39=1|44=4000.0|54=2|55=BTCUSD|59=4|60=20190329-07:45:49.140|150=F|151=0.8591662|479=USD|851=2|10=179|
8=FIX.4.4|9=271|35=8|34=251|49=GEMINIORDUAT|52=20190329-07:45:49.144|56=JOJOORDUAT|6=4019.402533408|11=83|12=12.0866040433460|13=3|14=1.0000000|17=182169124|31=4019.38|32=0.8591662|37=182169120|38=1.0|39=2|44=4000.0|54=2|55=BTCUSD|59=4|60=20190329-07:45:49.140|150=F|151=0|479=USD|851=2|10=148|
8=FIX.4.4|9=189|35=8|34=252|49=GEMINIORDUAT|52=20190329-07:45:49.148|56=JOJOORDUAT|6=0|11=84|14=0|17=182169128|37=182169127|38=1.0|39=0|44=4000.0|54=2|55=BTCUSD|59=4|60=20190329-07:45:49.146|150=0|151=1.0|10=228|
8=FIX.4.4|9=246|35=8|34=253|49=GEMINIORDUAT|52=20190329-07:45:49.149|56=JOJOORDUAT|6=4019.38|11=84|12=14.0678300|13=3|14=1.0|17=182169129|31=4019.38|32=1.0|37=182169127|38=1.0|39=2|44=4000.0|54=2|55=BTCUSD|59=4|60=20190329-07:45:49.146|150=F|151=0|479=USD|851=2|10=184|
8=FIX.4.4|9=189|35=8|34=254|49=GEMINIORDUAT|52=20190329-07:45:49.156|56=JOJOORDUAT|6=0|11=85|14=0|17=182169133|37=182169132|38=1.0|39=0|44=4000.0|54=2|55=BTCUSD|59=4|60=20190329-07:45:49.155|150=0|151=1.0|10=222|
8=FIX.4.4|9=271|35=8|34=255|49=GEMINIORDUAT|52=20190329-07:45:49.157|56=JOJOORDUAT|6=4019.38|11=85|12=0.0340976063540|13=3|14=0.0024238|17=182169134|31=4019.38|32=0.0024238|37=182169132|38=1.0|39=1|44=4000.0|54=2|55=BTCUSD|59=4|60=20190329-07:45:49.155|150=F|151=0.9975762|479=USD|851=2|10=192|
8=FIX.4.4|9=270|35=8|34=256|49=GEMINIORDUAT|52=20190329-07:45:49.157|56=JOJOORDUAT|6=4019.33012119|11=85|12=14.0335578178110|13=3|14=1.0000000|17=182169136|31=4019.33|32=0.9975762|37=182169132|38=1.0|39=2|44=4000.0|54=2|55=BTCUSD|59=4|60=20190329-07:45:49.155|150=F|151=0|479=USD|851=2|10=123|
8=FIX.4.4|9=189|35=8|34=257|49=GEMINIORDUAT|52=20190329-07:45:49.163|56=JOJOORDUAT|6=0|11=86|14=0|17=182169140|37=182169139|38=1.0|39=0|44=4000.0|54=2|55=BTCUSD|59=4|60=20190329-07:45:49.161|150=0|151=1.0|10=226|
8=FIX.4.4|9=272|35=8|34=258|49=GEMINIORDUAT|52=20190329-07:45:49.163|56=JOJOORDUAT|6=4019.33|11=86|12=12.3189582640390|13=3|14=0.8756938|17=182169141|31=4019.33|32=0.8756938|37=182169139|38=1.0|39=1|44=4000.0|54=2|55=BTCUSD|59=4|60=20190329-07:45:49.161|150=F|151=0.1243062|479=USD|851=2|10=019|
8=FIX.4.4|9=270|35=8|34=259|49=GEMINIORDUAT|52=20190329-07:45:49.164|56=JOJOORDUAT|6=4019.308867946|11=86|12=1.7486227737720|13=3|14=1.0000000|17=182169143|31=4019.16|32=0.1243062|37=182169139|38=1.0|39=2|44=4000.0|54=2|55=BTCUSD|59=4|60=20190329-07:45:49.161|150=F|151=0|479=USD|851=2|10=141|
8=FIX.4.4|9=189|35=8|34=260|49=GEMINIORDUAT|52=20190329-07:45:49.168|56=JOJOORDUAT|6=0|11=87|14=0|17=182169147|37=182169146|38=1.0|39=0|44=4000.0|54=2|55=BTCUSD|59=4|60=20190329-07:45:49.167|150=0|151=1.0|10=237|
8=FIX.4.4|9=246|35=8|34=261|49=GEMINIORDUAT|52=20190329-07:45:49.169|56=JOJOORDUAT|6=4019.16|11=87|12=14.0670600|13=3|14=1.0|17=182169148|31=4019.16|32=1.0|37=182169146|38=1.0|39=2|44=4000.0|54=2|55=BTCUSD|59=4|60=20190329-07:45:49.167|150=F|151=0|479=USD|851=2|10=180|
8=FIX.4.4|9=189|35=8|34=262|49=GEMINIORDUAT|52=20190329-07:45:49.177|56=JOJOORDUAT|6=0|11=88|14=0|17=182169152|37=182169151|38=1.0|39=0|44=4000.0|54=2|55=BTCUSD|59=4|60=20190329-07:45:49.175|150=0|151=1.0|10=231|
8=FIX.4.4|9=272|35=8|34=263|49=GEMINIORDUAT|52=20190329-07:45:49.177|56=JOJOORDUAT|6=4019.16|11=88|12=11.7675711566280|13=3|14=0.8365338|17=182169153|31=4019.16|32=0.8365338|37=182169151|38=1.0|39=1|44=4000.0|54=2|55=BTCUSD|59=4|60=20190329-07:45:49.175|150=F|151=0.1634662|479=USD|851=2|10=018|
8=FIX.4.4|9=270|35=8|34=264|49=GEMINIORDUAT|52=20190329-07:45:49.178|56=JOJOORDUAT|6=4019.137114732|11=88|12=2.2994087449340|13=3|14=1.0000000|17=182169155|31=4019.02|32=0.1634662|37=182169151|38=1.0|39=2|44=4000.0|54=2|55=BTCUSD|59=4|60=20190329-07:45:49.175|150=F|151=0|479=USD|851=2|10=131|
8=FIX.4.4|9=189|35=8|34=265|49=GEMINIORDUAT|52=20190329-07:45:49.183|56=JOJOORDUAT|6=0|11=89|14=0|17=182169159|37=182169158|38=1.0|39=0|44=4000.0|54=2|55=BTCUSD|59=4|60=20190329-07:45:49.181|150=0|151=1.0|10=243|
8=FIX.4.4|9=246|35=8|34=266|49=GEMINIORDUAT|52=20190329-07:45:49.184|56=JOJOORDUAT|6=4019.02|11=89|12=14.0665700|13=3|14=1.0|17=182169160|31=4019.02|32=1.0|37=182169158|38=1.0|39=2|44=4000.0|54=2|55=BTCUSD|59=4|60=20190329-07:45:49.181|150=F|151=0|479=USD|851=2|10=172|
8=FIX.4.4|9=189|35=8|34=267|49=GEMINIORDUAT|52=20190329-07:45:49.191|56=JOJOORDUAT|6=0|11=90|14=0|17=182169164|37=182169163|38=1.0|39=0|44=4000.0|54=2|55=BTCUSD|59=4|60=20190329-07:45:49.189|150=0|151=1.0|10=236|
8=FIX.4.4|9=272|35=8|34=268|49=GEMINIORDUAT|52=20190329-07:45:49.192|56=JOJOORDUAT|6=4019.02|11=90|12=12.9306072597660|13=3|14=0.9192438|17=182169165|31=4019.02|32=0.9192438|37=182169163|38=1.0|39=1|44=4000.0|54=2|55=BTCUSD|59=4|60=20190329-07:45:49.189|150=F|151=0.0807562|479=USD|851=2|10=014|
8=FIX.4.4|9=270|35=8|34=269|49=GEMINIORDUAT|52=20190329-07:45:49.192|56=JOJOORDUAT|6=4019.015154628|11=90|12=1.1359457814320|13=3|14=1.0000000|17=182169167|31=4018.96|32=0.0807562|37=182169163|38=1.0|39=2|44=4000.0|54=2|55=BTCUSD|59=4|60=20190329-07:45:49.189|150=F|151=0|479=USD|851=2|10=139|
8=FIX.4.4|9=189|35=8|34=270|49=GEMINIORDUAT|52=20190329-07:45:49.198|56=JOJOORDUAT|6=0|11=91|14=0|17=182169171|37=182169170|38=1.0|39=0|44=4000.0|54=2|55=BTCUSD|59=4|60=20190329-07:45:49.197|150=0|151=1.0|10=233|
8=FIX.4.4|9=246|35=8|34=271|49=GEMINIORDUAT|52=20190329-07:45:49.199|56=JOJOORDUAT|6=4018.96|11=91|12=14.0663600|13=3|14=1.0|17=182169172|31=4018.96|32=1.0|37=182169170|38=1.0|39=2|44=4000.0|54=2|55=BTCUSD|59=4|60=20190329-07:45:49.197|150=F|151=0|479=USD|851=2|10=192|
8=FIX.4.4|9=189|35=8|34=272|49=GEMINIORDUAT|52=20190329-07:45:49.205|56=JOJOORDUAT|6=0|11=92|14=0|17=182169176|37=182169175|38=1.0|39=0|44=4000.0|54=2|55=BTCUSD|59=4|60=20190329-07:45:49.204|150=0|151=1.0|10=224|
8=FIX.4.4|9=246|35=8|34=273|49=GEMINIORDUAT|52=20190329-07:45:49.205|56=JOJOORDUAT|6=4018.96|11=92|12=14.0663600|13=3|14=1.0|17=182169177|31=4018.96|32=1.0|37=182169175|38=1.0|39=2|44=4000.0|54=2|55=BTCUSD|59=4|60=20190329-07:45:49.204|150=F|151=0|479=USD|851=2|10=182|
8=FIX.4.4|9=189|35=8|34=274|49=GEMINIORDUAT|52=20190329-07:45:49.211|56=JOJOORDUAT|6=0|11=93|14=0|17=182169181|37=182169180|38=1.0|39=0|44=4000.0|54=2|55=BTCUSD|59=4|60=20190329-07:45:49.208|150=0|151=1.0|10=220|
8=FIX.4.4|9=271|35=8|34=275|49=GEMINIORDUAT|52=20190329-07:45:49.212|56=JOJOORDUAT|6=4018.96|11=93|12=0.1990924461680|13=3|14=0.0141538|17=182169182|31=4018.96|32=0.0141538|37=182169180|38=1.0|39=1|44=4000.0|54=2|55=BTCUSD|59=4|60=20190329-07:45:49.208|150=F|151=0.9858462|479=USD|851=2|10=211|
8=FIX.4.4|9=271|35=8|34=276|49=GEMINIORDUAT|52=20190329-07:45:49.213|56=JOJOORDUAT|6=4018.930424614|11=93|12=13.8671640399810|13=3|14=1.0000000|17=182169184|31=4018.93|32=0.9858462|37=182169180|38=1.0|39=2|44=4000.0|54=2|55=BTCUSD|59=4|60=20190329-07:45:49.208|150=F|151=0|479=USD|851=2|10=197|
8=FIX.4.4|9=189|35=8|34=277|49=GEMINIORDUAT|52=20190329-07:45:49.215|56=JOJOORDUAT|6=0|11=94|14=0|17=182169188|37=182169187|38=1.0|39=0|44=4000.0|54=2|55=BTCUSD|59=4|60=20190329-07:45:49.214|150=0|151=1.0|10=239|
8=FIX.4.4|9=246|35=8|34=278|49=GEMINIORDUAT|52=20190329-07:45:49.216|56=JOJOORDUAT|6=4018.93|11=94|12=14.0662550|13=3|14=1.0|17=182169189|31=4018.93|32=1.0|37=182169187|38=1.0|39=2|44=4000.0|54=2|55=BTCUSD|59=4|60=20190329-07:45:49.214|150=F|151=0|479=USD|851=2|10=195|
8=FIX.4.4|9=189|35=8|34=279|49=GEMINIORDUAT|52=20190329-07:45:49.222|56=JOJOORDUAT|6=0|11=95|14=0|17=182169193|37=182169192|38=1.0|39=0|44=4000.0|54=2|55=BTCUSD|59=4|60=20190329-07:45:49.221|150=0|151=1.0|10=230|
8=FIX.4.4|9=271|35=8|34=280|49=GEMINIORDUAT|52=20190329-07:45:49.223|56=JOJOORDUAT|6=4018.93|11=95|12=1.7750741702190|13=3|14=0.1261938|17=182169194|31=4018.93|32=0.1261938|37=182169192|38=1.0|39=1|44=4000.0|54=2|55=BTCUSD|59=4|60=20190329-07:45:49.221|150=F|151=0.8738062|479=USD|851=2|10=206|
8=FIX.4.4|9=271|35=8|34=281|49=GEMINIORDUAT|52=20190329-07:45:49.223|56=JOJOORDUAT|6=4018.921261938|11=95|12=12.2911502465640|13=3|14=1.0000000|17=182169196|31=4018.92|32=0.8738062|37=182169192|38=1.0|39=2|44=4000.0|54=2|55=BTCUSD|59=4|60=20190329-07:45:49.221|150=F|151=0|479=USD|851=2|10=178|
8=FIX.4.4|9=189|35=8|34=282|49=GEMINIORDUAT|52=20190329-07:45:49.228|56=JOJOORDUAT|6=0|11=96|14=0|17=182169200|37=182169199|38=1.0|39=0|44=4000.0|54=2|55=BTCUSD|59=4|60=20190329-07:45:49.227|150=0|151=1.0|10=233|
8=FIX.4.4|9=246|35=8|34=283|49=GEMINIORDUAT|52=20190329-07:45:49.229|56=JOJOORDUAT|6=4018.92|11=96|12=14.0662200|13=3|14=1.0|17=182169201|31=4018.92|32=1.0|37=182169199|38=1.0|39=2|44=4000.0|54=2|55=BTCUSD|59=4|60=20190329-07:45:49.227|150=F|151=0|479=USD|851=2|10=179|
8=FIX.4.4|9=189|35=8|34=284|49=GEMINIORDUAT|52=20190329-07:45:49.236|56=JOJOORDUAT|6=0|11=97|14=0|17=182169205|37=182169204|38=1.0|39=0|44=4000.0|54=2|55=BTCUSD|59=4|60=20190329-07:45:49.234|150=0|151=1.0|10=225|
8=FIX.4.4|9=271|35=8|34=285|49=GEMINIORDUAT|52=20190329-07:45:49.236|56=JOJOORDUAT|6=4018.92|11=97|12=3.6239337102360|13=3|14=0.2576338|17=182169206|31=4018.92|32=0.2576338|37=182169204|38=1.0|39=1|44=4000.0|54=2|55=BTCUSD|59=4|60=20190329-07:45:49.234|150=F|151=0.7423662|479=USD|851=2|10=208|
8=FIX.4.4|9=271|35=8|34=286|49=GEMINIORDUAT|52=20190329-07:45:49.237|56=JOJOORDUAT|6=4018.816068732|11=97|12=10.4419225303260|13=3|14=1.0000000|17=182169208|31=4018.78|32=0.7423662|37=182169204|38=1.0|39=2|44=4000.0|54=2|55=BTCUSD|59=4|60=20190329-07:45:49.234|150=F|151=0|479=USD|851=2|10=176|
8=FIX.4.4|9=189|35=8|34=287|49=GEMINIORDUAT|52=20190329-07:45:49.242|56=JOJOORDUAT|6=0|11=98|14=0|17=182169212|37=182169211|38=1.0|39=0|44=4000.0|54=2|55=BTCUSD|59=4|60=20190329-07:45:49.240|150=0|151=1.0|10=219|
8=FIX.4.4|9=246|35=8|34=288|49=GEMINIORDUAT|52=20190329-07:45:49.242|56=JOJOORDUAT|6=4018.78|11=98|12=14.0657300|13=3|14=1.0|17=182169213|31=4018.78|32=1.0|37=182169211|38=1.0|39=2|44=4000.0|54=2|55=BTCUSD|59=4|60=20190329-07:45:49.240|150=F|151=0|479=USD|851=2|10=177|
8=FIX.4.4|9=189|35=8|34=289|49=GEMINIORDUAT|52=20190329-07:45:49.249|56=JOJOORDUAT|6=0|11=99|14=0|17=182169217|37=182169216|38=1.0|39=0|44=4000.0|54=2|55=BTCUSD|59=4|60=20190329-07:45:49.247|150=0|151=1.0|10=246|
8=FIX.4.4|9=271|35=8|34=290|49=GEMINIORDUAT|52=20190329-07:45:49.249|56=JOJOORDUAT|6=4018.78|11=99|12=5.7425283795740|13=3|14=0.4082638|17=182169218|31=4018.78|32=0.4082638|37=182169216|38=1.0|39=1|44=4000.0|54=2|55=BTCUSD|59=4|60=20190329-07:45:49.247|150=F|151=0.5917362|479=USD|851=2|10=245|
8=FIX.4.4|9=269|35=8|34=291|49=GEMINIORDUAT|52=20190329-07:45:49.250|56=JOJOORDUAT|6=4018.57289233|11=99|12=8.3224767435810|13=3|14=1.0000000|17=182169220|31=4018.43|32=0.5917362|37=182169216|38=1.0|39=2|44=4000.0|54=2|55=BTCUSD|59=4|60=20190329-07:45:49.247|150=F|151=0|479=USD|851=2|10=092|
8=FIX.4.4|9=67|35=0|49=JOJOORDUAT|56=GEMINIORDUAT|34=102|52=20190329-07:46:18.877|10=222|
8=FIX.4.4|9=67|35=0|34=292|49=GEMINIORDUAT|52=20190329-07:46:20.165|56=JOJOORDUAT|10=215|
8=FIX.4.4|9=67|35=0|49=JOJOORDUAT|56=GEMINIORDUAT|34=103|52=20190329-07:46:49.016|10=212|
8=FIX.4.4|9=67|35=0|34=293|49=GEMINIORDUAT|52=20190329-07:46:50.165|56=JOJOORDUAT|10=219|
8=FIX.4.4|9=67|35=0|49=JOJOORDUAT|56=GEMINIORDUAT|34=104|52=20190329-07:47:19.173|10=215|
8=FIX.4.4|9=67|35=0|34=294|49=GEMINIORDUAT|52=20190329-07:47:20.165|56=JOJOORDUAT|10=218|
8=FIX.4.4|9=67|35=0|49=JOJOORDUAT|56=GEMINIORDUAT|34=105|52=20190329-07:47:49.328|10=221|
8=FIX.4.4|9=67|35=0|34=295|49=GEMINIORDUAT|52=20190329-07:47:50.165|56=JOJOORDUAT|10=222|
8=FIX.4.4|9=67|35=0|49=JOJOORDUAT|56=GEMINIORDUAT|34=106|52=20190329-07:48:19.485|10=224|
8=FIX.4.4|9=67|35=0|34=296|49=GEMINIORDUAT|52=20190329-07:48:20.165|56=JOJOORDUAT|10=221|
8=FIX.4.4|9=67|35=0|49=JOJOORDUAT|56=GEMINIORDUAT|34=107|52=20190329-07:48:49.671|10=225|
8=FIX.4.4|9=67|35=0|34=297|49=GEMINIORDUAT|52=20190329-07:48:50.165|56=JOJOORDUAT|10=225|
8=FIX.4.4|9=67|35=0|49=JOJOORDUAT|56=GEMINIORDUAT|34=108|52=20190329-07:49:19.830|10=221|
8=FIX.4.4|9=67|35=0|34=298|49=GEMINIORDUAT|52=20190329-07:49:20.165|56=JOJOORDUAT|10=224|
8=FIX.4.4|9=67|35=0|49=JOJOORDUAT|56=GEMINIORDUAT|34=109|52=20190329-07:49:50.002|10=208|
8=FIX.4.4|9=67|35=0|34=299|49=GEMINIORDUAT|52=20190329-07:49:50.165|56=JOJOORDUAT|10=228|
8=FIX.4.4|9=67|35=0|49=JOJOORDUAT|56=GEMINIORDUAT|34=110|52=20190329-07:50:20.154|10=197|
8=FIX.4.4|9=67|35=0|34=300|49=GEMINIORDUAT|52=20190329-07:50:20.165|56=JOJOORDUAT|10=200|
8=FIX.4.4|9=67|35=0|49=JOJOORDUAT|56=GEMINIORDUAT|34=111|52=20190329-07:50:50.308|10=202|
8=FIX.4.4|9=67|35=0|34=301|49=GEMINIORDUAT|52=20190329-07:50:50.165|56=JOJOORDUAT|10=204|
8=FIX.4.4|9=67|35=0|34=302|49=GEMINIORDUAT|52=20190329-07:51:20.165|56=JOJOORDUAT|10=203|
8=FIX.4.4|9=67|35=0|49=JOJOORDUAT|56=GEMINIORDUAT|34=112|52=20190329-07:51:20.451|10=200|
8=FIX.4.4|9=67|35=0|34=303|49=GEMINIORDUAT|52=20190329-07:51:50.165|56=JOJOORDUAT|10=207|
8=FIX.4.4|9=67|35=0|49=JOJOORDUAT|56=GEMINIORDUAT|34=113|52=20190329-07:51:50.653|10=208|
8=FIX.4.4|9=67|35=0|34=304|49=GEMINIORDUAT|52=20190329-07:52:20.165|56=JOJOORDUAT|10=206|
8=FIX.4.4|9=67|35=0|49=JOJOORDUAT|56=GEMINIORDUAT|34=114|52=20190329-07:52:20.791|10=210|
8=FIX.4.4|9=67|35=0|34=305|49=GEMINIORDUAT|52=20190329-07:52:50.165|56=JOJOORDUAT|10=210|
8=FIX.4.4|9=67|35=0|49=JOJOORDUAT|56=GEMINIORDUAT|34=115|52=20190329-07:52:50.974|10=217|
8=FIX.4.4|9=67|35=0|34=306|49=GEMINIORDUAT|52=20190329-07:53:20.165|56=JOJOORDUAT|10=209|
8=FIX.4.4|9=67|35=0|49=JOJOORDUAT|56=GEMINIORDUAT|34=116|52=20190329-07:53:21.149|10=211|
8=FIX.4.4|9=67|35=0|34=307|49=GEMINIORDUAT|52=20190329-07:53:50.165|56=JOJOORDUAT|10=213|
8=FIX.4.4|9=67|35=0|49=JOJOORDUAT|56=GEMINIORDUAT|34=117|52=20190329-07:53:51.284|10=215|
8=FIX.4.4|9=67|35=0|34=308|49=GEMINIORDUAT|52=20190329-07:54:20.165|56=JOJOORDUAT|10=212|
8=FIX.4.4|9=67|35=0|49=JOJOORDUAT|56=GEMINIORDUAT|34=118|52=20190329-07:54:21.485|10=217|
8=FIX.4.4|9=67|35=0|34=309|49=GEMINIORDUAT|52=20190329-07:54:50.165|56=JOJOORDUAT|10=216|
8=FIX.4.4|9=67|35=0|49=JOJOORDUAT|56=GEMINIORDUAT|34=119|52=20190329-07:54:51.673|10=220|
8=FIX.4.4|9=67|35=0|34=310|49=GEMINIORDUAT|52=20190329-07:55:20.165|56=JOJOORDUAT|10=206|
8=FIX.4.4|9=67|35=0|49=JOJOORDUAT|56=GEMINIORDUAT|34=120|52=20190329-07:55:21.787|10=216|
8=FIX.4.4|9=67|35=0|34=311|49=GEMINIORDUAT|52=20190329-07:55:50.165|56=JOJOORDUAT|10=210|
8=FIX.4.4|9=67|35=0|49=JOJOORDUAT|56=GEMINIORDUAT|34=121|52=20190329-07:55:51.954|10=216|
8=FIX.4.4|9=67|35=0|34=312|49=GEMINIORDUAT|52=20190329-07:56:20.165|56=JOJOORDUAT|10=209|
8=FIX.4.4|9=67|35=0|49=JOJOORDUAT|56=GEMINIORDUAT|34=122|52=20190329-07:56:22.106|10=205|
8=FIX.4.4|9=67|35=0|34=313|49=GEMINIORDUAT|52=20190329-07:56:50.165|56=JOJOORDUAT|10=213|
8=FIX.4.4|9=67|35=0|49=JOJOORDUAT|56=GEMINIORDUAT|34=123|52=20190329-07:56:52.287|10=219|
8=FIX.4.4|9=67|35=0|34=314|49=GEMINIORDUAT|52=20190329-07:57:20.165|56=JOJOORDUAT|10=212|
8=FIX.4.4|9=67|35=0|49=JOJOORDUAT|56=GEMINIORDUAT|34=124|52=20190329-07:57:22.511|10=208|
8=FIX.4.4|9=67|35=0|34=315|49=GEMINIORDUAT|52=20190329-07:57:50.165|56=JOJOORDUAT|10=216|
8=FIX.4.4|9=67|35=0|49=JOJOORDUAT|56=GEMINIORDUAT|34=125|52=20190329-07:57:52.718|10=221|
8=FIX.4.4|9=67|35=0|34=316|49=GEMINIORDUAT|52=20190329-07:58:20.165|56=JOJOORDUAT|10=215|
8=FIX.4.4|9=67|35=0|49=JOJOORDUAT|56=GEMINIORDUAT|34=126|52=20190329-07:58:22.855|10=222|
8=FIX.4.4|9=67|35=0|34=317|49=GEMINIORDUAT|52=20190329-07:58:50.165|56=JOJOORDUAT|10=219|
8=FIX.4.4|9=67|35=0|49=JOJOORDUAT|56=GEMINIORDUAT|34=127|52=20190329-07:58:53.024|10=215|
8=FIX.4.4|9=67|35=0|34=318|49=GEMINIORDUAT|52=20190329-07:59:20.165|56=JOJOORDUAT|10=218|
8=FIX.4.4|9=67|35=0|49=JOJOORDUAT|56=GEMINIORDUAT|34=128|52=20190329-07:59:23.199|10=227|
8=FIX.4.4|9=67|35=0|34=319|49=GEMINIORDUAT|52=20190329-07:59:50.165|56=JOJOORDUAT|10=222|
8=FIX.4.4|9=67|35=0|49=JOJOORDUAT|56=GEMINIORDUAT|34=129|52=20190329-07:59:53.372|10=224|
8=FIX.4.4|9=67|35=0|34=320|49=GEMINIORDUAT|52=20190329-08:00:20.165|56=JOJOORDUAT|10=198|
8=FIX.4.4|9=67|35=0|49=JOJOORDUAT|56=GEMINIORDUAT|34=130|52=20190329-08:00:23.548|10=205|
8=FIX.4.4|9=67|35=0|34=321|49=GEMINIORDUAT|52=20190329-08:00:50.165|56=JOJOORDUAT|10=202|
8=FIX.4.4|9=67|35=0|49=JOJOORDUAT|56=GEMINIORDUAT|34=131|52=20190329-08:00:53.716|10=206|
8=FIX.4.4|9=67|35=0|34=322|49=GEMINIORDUAT|52=20190329-08:01:20.165|56=JOJOORDUAT|10=201|
8=FIX.4.4|9=67|35=0|49=JOJOORDUAT|56=GEMINIORDUAT|34=132|52=20190329-08:01:23.876|10=212|
8=FIX.4.4|9=67|35=0|34=323|49=GEMINIORDUAT|52=20190329-08:01:50.165|56=JOJOORDUAT|10=205|
8=FIX.4.4|9=67|35=0|49=JOJOORDUAT|56=GEMINIORDUAT|34=133|52=20190329-08:01:54.035|10=204|
8=FIX.4.4|9=67|35=0|34=324|49=GEMINIORDUAT|52=20190329-08:02:20.165|56=JOJOORDUAT|10=204|
8=FIX.4.4|9=67|35=0|49=JOJOORDUAT|56=GEMINIORDUAT|34=134|52=20190329-08:02:24.214|10=202|
8=FIX.4.4|9=67|35=0|34=325|49=GEMINIORDUAT|52=20190329-08:02:50.165|56=JOJOORDUAT|10=208|
8=FIX.4.4|9=67|35=0|49=JOJOORDUAT|56=GEMINIORDUAT|34=135|52=20190329-08:02:54.357|10=214|
8=FIX.4.4|9=67|35=0|34=326|49=GEMINIORDUAT|52=20190329-08:03:20.165|56=JOJOORDUAT|10=207|
8=FIX.4.4|9=67|35=0|49=JOJOORDUAT|56=GEMINIORDUAT|34=136|52=20190329-08:03:24.561|10=210|
8=FIX.4.4|9=67|35=0|34=327|49=GEMINIORDUAT|52=20190329-08:03:50.165|56=JOJOORDUAT|10=211|
8=FIX.4.4|9=67|35=0|49=JOJOORDUAT|56=GEMINIORDUAT|34=137|52=20190329-08:03:54.747|10=220|
8=FIX.4.4|9=67|35=0|34=328|49=GEMINIORDUAT|52=20190329-08:04:20.165|56=JOJOORDUAT|10=210|
8=FIX.4.4|9=67|35=0|49=JOJOORDUAT|56=GEMINIORDUAT|34=138|52=20190329-08:04:24.903|10=213|
8=FIX.4.4|9=67|35=0|34=329|49=GEMINIORDUAT|52=20190329-08:04:50.165|56=JOJOORDUAT|10=214|
8=FIX.4.4|9=67|35=0|49=JOJOORDUAT|56=GEMINIORDUAT|34=139|52=20190329-08:04:55.049|10=219|
8=FIX.4.4|9=67|35=0|34=330|49=GEMINIORDUAT|52=20190329-08:05:20.165|56=JOJOORDUAT|10=204|
