8=FIXT.1.1|9=77|35=A|49=DLD_TEX|56=TEX1_DLD|34=1|52=20190326-10:30:01.148|98=0|108=10|1137=8|10=004|
8=FIXT.1.1|9=77|35=A|49=TEX1_DLD|56=DLD_TEX|34=1|52=20190326-10:30:01.150|98=0|108=10|1137=8|10=253|
8=FIXT.1.1|9=58|35=0|49=DLD_TEX|56=TEX1_DLD|34=2|52=20190326-10:30:11.193|10=155|
8=FIXT.1.1|9=58|35=0|49=TEX1_DLD|56=DLD_TEX|34=2|52=20190326-10:30:11.205|10=149|
8=FIXT.1.1|9=58|35=0|49=DLD_TEX|56=TEX1_DLD|34=3|52=20190326-10:30:21.234|10=153|
8=FIXT.1.1|9=58|35=0|49=TEX1_DLD|56=DLD_TEX|34=3|52=20190326-10:30:21.235|10=154|
8=FIXT.1.1|9=58|35=0|49=DLD_TEX|56=TEX1_DLD|34=4|52=20190326-10:30:31.283|10=159|
8=FIXT.1.1|9=58|35=0|49=TEX1_DLD|56=DLD_TEX|34=4|52=20190326-10:30:31.294|10=161|
8=FIXT.1.1|9=58|35=0|49=DLD_TEX|56=TEX1_DLD|34=5|52=20190326-10:30:41.321|10=154|
8=FIXT.1.1|9=58|35=0|49=TEX1_DLD|56=DLD_TEX|34=5|52=20190326-10:30:41.349|10=164|
8=FIXT.1.1|9=58|35=0|49=DLD_TEX|56=TEX1_DLD|34=6|52=20190326-10:30:51.363|10=162|
8=FIXT.1.1|9=58|35=0|49=TEX1_DLD|56=DLD_TEX|34=6|52=20190326-10:30:51.395|10=167|
8=FIXT.1.1|9=77|35=A|49=DLD_TEX|56=TEX1_DLD|34=7|52=20190327-02:49:09.311|98=0|108=10|1137=8|10=022|
8=FIXT.1.1|9=77|35=A|49=TEX1_DLD|56=DLD_TEX|34=7|52=20190327-02:49:09.313|98=0|108=10|1137=8|10=024|
8=FIXT.1.1|9=77|35=A|49=DLD_TEX|56=TEX1_DLD|34=8|52=20190327-02:49:31.624|98=0|108=10|1137=8|10=025|
8=FIXT.1.1|9=77|35=A|49=TEX1_DLD|56=DLD_TEX|34=8|52=20190327-02:49:31.625|98=0|108=10|1137=8|10=026|
8=FIXT.1.1|9=77|35=A|49=DLD_TEX|56=TEX1_DLD|34=9|52=20190327-02:49:42.946|98=0|108=10|1137=8|10=035|
8=FIXT.1.1|9=77|35=A|49=TEX1_DLD|56=DLD_TEX|34=9|52=20190327-02:49:42.947|98=0|108=10|1137=8|10=036|
8=FIXT.1.1|9=78|35=A|49=DLD_TEX|56=TEX1_DLD|34=10|52=20190327-02:49:49.580|98=0|108=10|1137=8|10=077|
8=FIXT.1.1|9=78|35=A|49=TEX1_DLD|56=DLD_TEX|34=10|52=20190327-02:49:49.582|98=0|108=10|1137=8|10=079|
